:020000040800F2
:10000000000002205D3C0008E93B0008EB3B0008D3
:10001000ED3B0008EF3B0008F13B0008000000004A
:10002000000000000000000000000000F33B00089A
:10003000F53B000800000000F73B0008F93B000812
:10004000AD3C0008AD3C0008AD3C0008AD3C0008EC
:10005000AD3C0008AD3C0008013C0008AD3C000888
:10006000AD3C0008AD3C0008AD3C0008AD3C0008CC
:10007000AD3C0008AD3C0008AD3C0008AD3C0008BC
:10008000AD3C0008AD3C0008AD3C0008000000009D
:10009000000000000000000000000000AD3C00086F
:1000A000AD3C0008AD3C0008AD3C0008AD3C00088C
:1000B000AD3C0008AD3C0008AD3C0008AD3C00087C
:1000C000AD3C0008AD3C0008AD3C0008AD3C00086C
:1000D000AD3C0008AD3C0008AD3C0008000000004D
:1000E000AD3C0008AD3C0008AD3C0008000000003D
:1000F000000000000000000000000000AD3C00080F
:1001000000000000AD3C0008AD3C0008AD3C00081C
:1001100000000000000000000000000000000000DF
:10012000AD3C0008AD3C0008AD3C0008AD3C00080B
:10013000AD3C0008000000000000000000000000CE
:10014000000000000000000000000000AD3C0008BE
:10015000AD3C0008AD3C0008AD3C0008AD3C0008DB
:10016000AD3C0008AD3C00080000000000000000AD
:10017000000000000000000000000000000000007F
:1001800000000000AD3C000800000000000000007E
:08019000AD3C0008AD3C000885
:1001A00010B5054C237833B9044B13B10448AFF3B1
:1001B00000800123237010BDB40000200000000067
:1001C0001C46000808B5034B1BB103490348AFF3B5
:1001D000008008BD00000000B80000201C46000898
:1001E00081F0004102E000BF83F0004330B54FEAE8
:1001F00041044FEA430594EA050F08BF90EA020F55
:100200001FBF54EA000C55EA020C7FEA645C7FEAE7
:10021000655C00F0E2804FEA5454D4EB5555B8BF0A
:100220006D420CDD2C4480EA020281EA030382EA7B
:10023000000083EA010180EA020281EA0303362D0D
:1002400088BF30BD11F0004F4FEA01314FF4801CE0
:100250004CEA113102D0404261EB410113F0004FF2
:100260004FEA03334CEA133302D0524263EB4303A9
:1002700094EA050F00F0A780A4F10104D5F1200E47
:100280000DDB02FA0EFC22FA05F2801841F10001A2
:1002900003FA0EF2801843FA05F359410EE0A5F176
:1002A00020050EF1200E012A03FA0EFC28BF4CF0A7
:1002B000020C43FA05F3C01851EBE37101F000455D
:1002C00007D54FF0000EDCF1000C7EEB00006EEB6A
:1002D0000101B1F5801F1BD3B1F5001F0CD34908F4
:1002E0005FEA30004FEA3C0C04F101044FEA44524B
:1002F00012F5800F80F09A80BCF1004F08BF5FEAD2
:10030000500C50F1000041EB045141EA050130BDB1
:100310005FEA4C0C404141EB010111F4801FA4F154
:100320000104E9D191F0000F04BF01460020B1FAA9
:1003300081F308BF2033A3F10B03B3F120020CDAE1
:100340000C3208DD02F1140CC2F10C0201FA0CF0BF
:1003500021FA02F10CE002F11402D8BFC2F1200C24
:1003600001FA02F120FA0CFCDCBF41EA0C019040DA
:10037000E41AA2BF01EB0451294330BD6FEA040423
:100380001F3C1CDA0C340EDC04F11404C4F120020E
:1003900020FA04F001FA02F340EA030021FA04F320
:1003A00045EA030130BDC4F10C04C4F1200220FA77
:1003B00002F001FA04F340EA0300294630BD21FAB5
:1003C00004F0294630BD94F0000F83F4801306BF7B
:1003D00081F480110134013D4EE77FEA645C18BF6F
:1003E0007FEA655C29D094EA050F08BF90EA020F06
:1003F00005D054EA000C04BF1946104630BD91EAFE
:10040000030F1EBF0021002030BD5FEA545C05D100
:100410004000494128BF41F0004130BD14F580043F
:100420003CBF01F5801130BD01F0004545F0FE41B3
:1004300041F470014FF0000030BD7FEA645C1ABFE8
:10044000194610467FEA655C1CBF0B46024650EA1F
:10045000013406BF52EA033591EA030F41F400214B
:1004600030BD00BF90F0000F04BF0021704730B5D1
:100470004FF4806404F132044FF000054FF00001A6
:1004800050E700BF90F0000F04BF0021704730B567
:100490004FF4806404F1320410F0004548BF40423C
:1004A0004FF000013EE700BF42004FEAE2014FEA91
:1004B00031014FEA02701FBF12F07F4393F07F4F6C
:1004C00081F06051704732F07F4208BF704793F06F
:1004D0007F4F04BF41F40021704730B54FF4607482
:1004E00001F0004521F000411CE700BF50EA010285
:1004F00008BF704730B54FF000050AE050EA01022E
:1005000008BF704730B511F0004502D5404261EB9D
:1005100041014FF4806404F132045FEA915C3FF4DE
:10052000D8AE4FF003025FEADC0C18BF03325FEA7B
:10053000DC0C18BF033202EBDC02C2F1200300FA2C
:1005400003FC20FA02F001FA03FE40EA0E0021FA51
:1005500002F11444BDE600BF4FEA4102B2F1E043AC
:1005600024BFB3F5001CDCF1FE5C0DD901F0004C9A
:100570004FEAC0024CEA5070B2F1004F40EB8300EA
:1005800008BF20F00100704711F0804F21D113F116
:100590003872BCBF01F00040704741F480114FEA4F
:1005A0005252C2F11802C2F1200C10FA0CF320FAD8
:1005B00002F018BF40F001004FEAC1234FEAD323F5
:1005C00003FA0CFC40EA0C0023FA02F34FEA43035F
:1005D000CCE77FEA625307D150EA01331EBF4FF0E8
:1005E000FE4040F44000704701F0004040F0FE4003
:1005F00040F40000704700BF53B94AB9002908BF52
:1006000000281CBF4FF0FF314FF0FF3000F072B9EF
:10061000ADF1080C6DE904CE00F006F8DDF804E059
:10062000DDE9022304B070472DE9F047089E044637
:100630008846002B4BD18A42154667D9B2FA82F21E
:100640004AB1C2F1200701FA02F320FA07F79540F8
:1006500047EA030894404FEA154E230CB8FBFEF717
:100660001FFA85FC0EFB178843EA084307FB0CF1D1
:10067000994209D9EB1807F1FF3080F01B819942AC
:1006800040F21881023F2B445B1AA4B2B3FBFEF088
:100690000EFB103344EA034400FB0CFCA44509D9CB
:1006A0002C1900F1FF3380F00781A44540F204814A
:1006B00002382C4440EA0740A4EB0C0400271EB18A
:1006C000D4400023C6E900433946BDE8F0878B4299
:1006D00009D9002E00F0EB800027C6E9000138465A
:1006E0003946BDE8F087B3FA83F7002F47D18B4234
:1006F00002D3824200F2FA80841A61EB03030120E4
:100700009846002EE0D0C6E90048DDE702B9FFDEDA
:10071000B2FA82F2002A40F08F80491B4FEA154E50
:100720001FFA85F80127B1FBFEFC230C0EFB1C1100
:1007300043EA014308FB0CF1994207D9EB180CF18D
:10074000FF3002D2994200F2CD808446591AA3B2FA
:10075000B1FBFEF00EFB101443EA044408FB00F862
:10076000A04507D92C1900F1FF3302D2A04500F2B1
:10077000B6801846A4EB080440EA0C409FE7C7F196
:10078000200CBB4022FA0CFE4EEA030E01FA07F4DD
:1007900020FA0CF521FA0CF34FEA1E482543B3FB6F
:1007A000F8F92C0C08FB19331FFA8EFA44EA0343BC
:1007B00009FB0AF49C4202FA07F200FA07F10BD98E
:1007C0001EEB030309F1FF3080F087809C4240F26A
:1007D0008480A9F1020973441B1BADB2B3FBF8F08E
:1007E00008FB103345EA034400FB0AFAA24508D986
:1007F0001EEB040400F1FF336BD2A24569D9023825
:10080000744440EA0940A0FB0289A4EB0A044C4569
:10081000C2464B4654D351D0002E69D0B1EB0A05E5
:1008200064EB030404FA0CFCFD40FC404CEA0505B3
:10083000C6E90054002747E7C2F1200320FA03F776
:10084000954001FA02F021FA03F34FEA154E3843BE
:10085000010CB3FBFEF71FFA85F80EFB173341EAD4
:10086000034107FB08F38B4204FA02F407D9691825
:1008700007F1FF3C2FD28B422DD9023F2944CB1ADE
:1008800081B2B3FBFEF00EFB103341EA034100FBE3
:1008900008F38B4207D9691800F1FF3C17D28B424D
:1008A00015D902382944C91A40EA07473BE73746B9
:1008B000304609E70746E7E61846FBE64145ABD276
:1008C000B8EB020A69EB0E0201381346A4E7604652
:1008D000E9E7184695E76746D1E781467CE70238A5
:1008E0002C4447E7ACF1020C2B442FE7384608E7CD
:1008F0003746E9E6704700BF034613F8012B002A8C
:10090000FBD1181A013870470000000000000000F9
:1009100001F0FF01102A2BDB10F0070F08D010F8B0
:10092000013B013A8B422DD010F0070F42B3F6D1B4
:10093000F0B441EA012141EA014122F007047FF0CD
:1009400000070023F0E80256083C85EA010586EA24
:10095000010685FA47F5A3FA87F586FA47F6A5FA60
:1009600087F68EB9EED1F0BC01F0FF0102F007026C
:1009700032B110F8013B013A83EA010313B1F8D117
:100980000020704701387047002D06BF35460338F8
:10099000073815F0010F07D1013015F4807F02BF31
:1009A000013015F4C03F0130F0BC0138704700BF82
:1009B00010B504460E4B18784FF47A73B3FBF0F37E
:1009C0000C4A1068B0FBF3F000F0A8F868B90F2CDF
:1009D00001D901200AE0002221464FF0FF3000F04B
:1009E0005DF8034B5C60002000E0012010BD00BFFB
:1009F000000000204C00002008B50B4B1A6842F4A0
:100A000000721A601A6842F480621A601A6842F42E
:100A100080721A60032000F02FF80020FFF7C8FF53
:100A200003F0C2F8002008BD003C0240034A1168F0
:100A3000034B1B780B441360704700BF1C0500205C
:100A400000000020014B1868704700BF1C05002003
:100A500038B50446FFF7F6FF0546B4F1FF3F02D074
:100A6000044B1B781C44FFF7EDFF401BA042FAD358
:100A700038BD00BF00000020074AD36823F4E063BC
:100A80001B041B0C000200F4E060184340F0BF6040
:100A900040F40030D060704700ED00E030B4174BF8
:100AA000DB68C3F30223C3F10704042C28BF04242A
:100AB0001D1D062D18D9033B4FF0FF3505FA04F430
:100AC00021EA0401994005FA03F322EA03031943DA
:100AD00000280BDB0901C9B200F1604000F561405C
:100AE00080F8001330BC70470023E5E700F00F00EA
:100AF0000901C9B2024B1954F4E700BF00ED00E050
:100B000014ED00E000F01F02400901239340024A67
:100B100042F82030704700BF00E100E00138B0F13A
:100B2000807F0AD2064B5860064AF02182F82310D3
:100B30000020986007221A6070470120704700BFAC
:100B400010E000E000ED00E000230F2B00F2C58074
:100B5000F0B482B039E0042200E00022B2403A430F
:100B600002345E4E46F824205D4A1468EA4302EAE5
:100B700004064F6817F4803F01D045EA0406584C3C
:100B80002660646802EA04064F6817F4003F01D04B
:100B900045EA0406524C6660A46802EA04064F68FF
:100BA00017F4801F01D045EA04064D4CA660E468A6
:100BB00022404E6816F4001F01D045EA0402484C5A
:100BC000E26001330F2B00F2858001229A400C680D
:100BD00004EA0205AA42F4D14C68022C01D0122C7E
:100BE00010D1DE08083650F826C003F00704A7002D
:100BF0000F24BC402CEA040C0C69BC4044EA0C04F1
:100C000040F8264004685F000326BE40F64306EA2B
:100C1000040C4C6804F00304BC4044EA0C04046077
:100C20004C6804F1FF3CBCF1010F03D9112C01D039
:100C3000122C10D1846806EA040CCC68BC4044EA4B
:100C40000C048460446824EA02024C68C4F3001473
:100C50009C4014434460C26816408A68BA403243DC
:100C6000C2604A6812F0805FABD0002201921D4A38
:100C7000546C44F480445464526C02F480420192F7
:100C8000019A9C08A61C154A52F8267003F003022C
:100C900096000F22B24027EA0207134A90423FF41F
:100CA0005CAF02F5806290420ED002F58062904205
:100CB0000CD002F5806290420AD002F58062904228
:100CC0003FF449AF072249E7012247E7022245E7FF
:100CD000032243E702B0F0BC704770470038014080
:100CE000003C0140003802400000024000230F2B6E
:100CF00072D8F0B509E0042500E0002505FA02F2FB
:100D0000A24250D001330F2B65D801229A4002EA4B
:100D10000106B242F6D105685F000324BC40E443FB
:100D2000254005604FEAD30C0CF1080C50F82CE07C
:100D300003F00705AD000F2707FA05F52EEA0505B4
:100D400040F82C50856825408560456825EA0202F8
:100D50004260C2681440C4604FEA930C0CF1020474
:100D60001E4A52F8244003F00302920097403C4090
:100D70001B4DA842C1D005F58065A8420DD005F5F0
:100D80008065A8420BD005F58065A84209D005F51D
:100D90008065A842AFD00725B0E70125AEE7022560
:100DA000ACE70325AAE70D4D0CF1020255F82240ED
:100DB00024EA070745F822700A4C2568F2431540DB
:100DC0002560656815406560A5681540A560E56803
:100DD0002A40E26096E7F0BD704700BF003801404E
:100DE00000000240003C01400369194201D100208B
:100DF00070470120704712B9090481617047816111
:100E0000704743695940416170470000002800F075
:100E1000BB8170B582B00446036813F0010F3BD06C
:100E2000A74B9B6803F00C03042B2CD0A44B9B68AE
:100E300003F00C03082B21D06368B3F5803F4FD03B
:100E4000B3F5A02F52D09E4B1A6822F480321A605C
:100E50001A6822F480221A606368002B50D0FFF7D2
:100E6000F1FD0546964B1B6813F4003F14D1FFF7C4
:100E7000E9FD401B6428F5D903208AE1904B5B68AB
:100E800013F4800FD8D08E4B1B6813F4003F03D0AF
:100E90006368002B00F07A81236813F0020F55D0AD
:100EA000874B9B6813F00C0F3ED0854B9B6803F07B
:100EB0000C03082B33D0E368002B68D0814B012250
:100EC0001A60FFF7BFFD05467D4B1B6813F0020F4C
:100ED00054D1FFF7B7FD401B0228F5D9032058E194
:100EE000774A136843F480331360B5E7744B1A688C
:100EF00042F480221A601A6842F480321A60ABE72A
:100F0000FFF7A0FD05466E4B1B6813F4003FC3D0EE
:100F1000FFF798FD401B6428F5D9032039E1684BA1
:100F20005B6813F4800FC6D1654B1B6813F0020F8A
:100F300004D0E368012B01D001202AE1604A136844
:100F400023F0F803216943EAC1031360236813F017
:100F5000080F40D0636963B35B4B01221A60FFF74F
:100F600071FD0546564B5B6F13F0020F33D1FFF74F
:100F700069FD401B0228F5D903200AE1504A136895
:100F800023F0F803216943EAC1031360DEE74D4B08
:100F900000221A60FFF756FD0546494B1B6813F007
:100FA000020FD3D0FFF74EFD401B0228F5D90320D6
:100FB000EFE0454B00221A60FFF744FD0546404B29
:100FC0005B6F13F0020F06D0FFF73CFD401B0228B9
:100FD000F5D90320DDE0236813F0040F79D0384BF6
:100FE0001B6C13F0805F33D100230193344B1A6CD8
:100FF00042F080521A641B6C03F080530193019BF2
:101000000125324B1B6813F4807F23D0A368012B8A
:1010100034D0052B38D02A4B1A6F22F001021A6700
:101020001A6F22F004021A67A368002B36D0FFF76C
:1010300009FD0646224B1B6F13F0020F48D1FFF744
:1010400001FD801B41F288339842F3D90320A0E0D0
:101050000025D6E71D4A136843F480731360FFF739
:10106000F1FC0646194B1B6813F4807FCED1FFF7C5
:10107000E9FC801B0228F5D903208AE0104A136F8F
:1010800043F001031367CFE70D4B1A6F42F00402E0
:101090001A671A6F42F001021A67C5E7FFF7D2FC20
:1010A0000646074B1B6F13F0020F11D0FFF7CAFC67
:1010B000801B41F288339842F3D9032069E000BFD6
:1010C0000038024000004742800E47420070004056
:1010D000E5B9A369002B5BD0304A926802F00C029C
:1010E000082A58D0022B17D02D4B00221A60FFF788
:1010F000A9FC0446294B1B6813F0007F42D0FFF780
:10110000A1FC001B0228F5D9032042E0234A136CFE
:1011100023F080531364DCE7214B00221A60FFF7B1
:1011200091FC05461D4B1B6813F0007F06D0FFF7AE
:1011300089FC401B0228F5D903202AE0E369226AD2
:101140001343626A43EA8213A26A5208013A43EAED
:101150000243E26A43EA0263104A5360104B0122E1
:101160001A60FFF76FFC04460C4B1B6813F0007FFE
:1011700006D1FFF767FC001B0228F5D9032008E021
:10118000002006E0002004E001207047012000E07C
:10119000002002B070BD0120FBE700BF0038024014
:1011A00060004742324B9B6803F00C03042B5CD079
:1011B000082B01D02F4870472DE9F04B2C4B5A6873
:1011C00002F03F025B6813F4800F2BD0284B5B6862
:1011D000C3F388131E4600275C010025E41A65EB63
:1011E0000705A90141EA9461A001001B61EB05011B
:1011F000CB0043EA5073C400A01943EB07014B0234
:1012000043EAD0534402204619460023FFF7F4F97D
:10121000174B5B68C3F3014301335B00B0FBF3F092
:10122000BDE8F08B124B5B68C3F388131E460027A2
:101230005C010025E41A65EB0705A90141EA946108
:10124000A001001B61EB0501CB0043EA5073C40011
:10125000A01943EB07018B0243EA90538402204616
:1012600019460023FFF7C8F9D2E70348704700BFCB
:10127000003802400024F40000127A00002800F038
:101280009D8070B504464F4B1B6803F00F038B42E3
:1012900009D2CBB24B4A1370136803F00F038B4291
:1012A00001D0012070BD236813F0020F17D013F096
:1012B000040F04D0444A936843F4E05393602368D6
:1012C00013F0080F04D0404A936843F460439360DE
:1012D0003D4A936823F0F003A068034393600D46F2
:1012E000236813F0010F32D06368012B21D09A1EBE
:1012F000012A25D9344A126812F0020F60D032490F
:101300008A6822F0030213438B60FFF79BFB0646BB
:101310002D4B9B6803F00C036268B3EB820F16D071
:10132000FFF790FB801B41F288339842F0D90320ED
:10133000B8E7254A126812F4003FE0D10120B1E776
:10134000214A126812F0007FD9D10120AAE71D4B73
:101350001B6803F00F03AB4209D9EAB2194B1A70AC
:101360001B6803F00F03AB4201D001209AE723680A
:1013700013F0040F06D0144A936823F4E053E16895
:101380000B439360236813F0080F07D00E4A93684D
:1013900023F46043216943EAC1039360FFF702FF2E
:1013A000094B9B68C3F30313084AD35CD840084B2E
:1013B00018600020FFF7FCFA002073E70120704757
:1013C00001206FE7003C0240003802405046000810
:1013D0004C000020014B1868704700BF4C000020F3
:1013E00008B5FFF7F7FF044B9B68C3F38223034A5A
:1013F000D35CD84008BD00BF0038024060460008FA
:1014000008B5FFF7E7FF044B9B68C3F34233034A79
:10141000D35CD84008BD00BF0038024060460008D9
:10142000F8B505460F4616461C463BE02CB1FFF7C3
:1014300009FB069BC01AA04234D32A68536823F0E4
:10144000E00353606B68B3F5827F0BD0AB6AB3F5F2
:10145000005F14D0012385F85130002385F8503007
:10146000032027E0AB68B3F5004F02D0B3F5806FDF
:10147000ECD12A68136823F040031360E6E72A687A
:10148000136823F400531B041B0C13602A681368B1
:1014900043F400531360DDE70123B34209D0B4F1F4
:1014A000FF3FC3D12B689B6837EA0303F4D00023C6
:1014B000F3E70020F8BD10B582B0044600920B4659
:1014C00000228021FFF7ACFF034610B9184602B096
:1014D00010BD636D43F0200363650323F6E7704797
:1014E00000283BD010B504460023836290F85130A9
:1014F000002B2ED0022384F851302268136823F089
:10150000400313606368A2681343E26813432269CF
:10151000134362691343A26902F400721343E26940
:101520001343226A1343A16A22680B431360638B3F
:1015300003F00403616A22680B4353602268D36995
:1015400023F40063D36100206065012384F85130E7
:1015500010BD80F85030FFF7C2FFCBE70120704785
:101560002DE9F04385B099460C9D90F85030012B41
:1015700000F0108104460F461646012380F85030D3
:10158000FFF760FA804694F85130DBB26268012BB5
:1015900015D0B2F5827F0AD00223012284F85120AF
:1015A000002284F85020184605B0BDE8F083A268F8
:1015B000002A40F0E780042B01D00223EDE7002F42
:1015C00000F0E280002E00F0E180B9F1000F00F0A1
:1015D000DF8094F85130DBB2012B2BD00023636500
:1015E000A663A4F83E90A4F83C902763A4F8369034
:1015F000A4F834902364636423681A6812F0400FDF
:1016000003D11A6842F040021A60E368B3F5006F34
:1016100014D063681BB1E38E9BB2012B07D1236802
:1016200017F8012B1A73E38E013B9BB2E3864FF050
:10163000010961E0052384F85130CFE763681BB1ED
:10164000E38E9BB2012B07D1236837F8022BDA60B7
:10165000E38E013B9BB2E3864FF0010913E0E38F79
:101660009BB26BB123689A6812F0010F08D0DB6857
:1016700026F8023BE38F013B9BB2E3874FF0010961
:10168000B5F1FF3F1CD1E38E9BB21BB9E38F9BB238
:10169000002B55D0B9F1000FE1D0E38E9BB2002BA7
:1016A000DDD023689A6812F0020FD8D037F8022BE9
:1016B000DA60E38E013B9BB2E3864FF00009CEE790
:1016C000FFF7C0F9A0EB0800A842DCD3032364E7CE
:1016D000E38F9BB26BB123689A6812F0010F08D0B8
:1016E000DB683370E38F013B9BB2E38701364FF039
:1016F0000109B5F1FF3F1BD1E38E9BB213B9E38F14
:101700009BB2EBB1B9F1000FE2D0E38E9BB2002B9C
:10171000DED023689A6812F0020FD9D03A781A7393
:10172000E38E013B9BB2E38601374FF00009CFE720
:10173000FFF788F9A0EB0800A842DDD303232CE7CC
:10174000CDF800802B46012202212046FFF768FEDB
:1017500008B1032321E7424629462046FFF7ABFEA6
:10176000034618B120236365012316E7A268002A07
:101770007FF413AF03922268D168039192680392B9
:10178000039A0AE7022308E7012306E7012304E797
:10179000012302E7022306E790F85100704700009A
:1017A0002DE9F843044601680A6922F44052C368EF
:1017B00013430B610168CA6822F4164222F00C023E
:1017C00083680069034360690343E069034313438B
:1017D000CB6021684A6922F44072A36913434B61CC
:1017E000E369B3F5004F60D02368B84A934200F034
:1017F000148102F58062934200F00F81FFF7F0FD43
:1018000000EB800000EB80006568AD00B0FBF5F5F3
:10181000AF4FA7FB05356D092E01FFF7E1FD00EB8A
:10182000800000EB80006568AD00B0FBF5F9FFF7C4
:10183000D7FD00EB800000EB80006568AD00B0FBD9
:10184000F5F5A7FB05356D094FF0640808FB159504
:101850002D013235A7FB05356D0905F0F00535443E
:10186000FFF7BEFD00EB800000EB80006668B6006D
:10187000B0FBF6F6FFF7B4FD00EB800000EB800054
:1018800063689B00B0FBF3F0A7FB0030400908FB46
:1018900010684FEA081808F13208A7FB0837C7F3A9
:1018A000431723682F449F600DE12368874A9342C2
:1018B0005BD002F58062934257D0FFF791FD00EBB9
:1018C000800000EB800065686D00B0FBF5F5804F8F
:1018D000A7FB05356D092E01FFF782FD00EB8000A7
:1018E00000EB800065686D00B0FBF5F9FFF778FD4F
:1018F00000EB800000EB800065686D00B0FBF5F543
:10190000A7FB05356D094FF0640808FB1595ED0040
:101910003235A7FB05356D096D0005F4F8753544C2
:10192000FFF75EFD00EB800000EB8000666876004C
:10193000B0FBF6F6FFF754FD00EB800000EB8000F3
:1019400063685B00B0FBF3F3A7FB03235B0908FBB1
:1019500013684FEAC80808F13208A7FB0837C7F335
:10196000421723682F449F60ADE0FFF749FD00EB6D
:10197000800000EB800065686D00B0FBF5F5544F0A
:10198000A7FB05356D092E01FFF73AFD00EB80003E
:1019900000EB800065686D00B0FBF5F9FFF730FDE6
:1019A00000EB800000EB800065686D00B0FBF5F592
:1019B000A7FB05356D094FF0640808FB1595ED0090
:1019C0003235A7FB05356D096D0005F4F875354412
:1019D000FFF716FD00EB800000EB800066687600E4
:1019E000B0FBF6F6FFF70CFD00EB800000EB80008B
:1019F00063685B00B0FBF3F3A7FB03235B0908FB01
:101A000013684FEAC80808F13208A7FB0837C7F384
:101A1000421723682F449F6055E0FFF7F1FC00EB6D
:101A2000800000EB80006568AD00B0FBF5F5284F45
:101A3000A7FB05356D092E01FFF7E2FC00EB8000E6
:101A400000EB80006568AD00B0FBF5F9FFF7D8FC4E
:101A500000EB800000EB80006568AD00B0FBF5F5A1
:101A6000A7FB05356D094FF0640808FB15952D019E
:101A70003235A7FB05356D0905F0F0053544FFF754
:101A8000BFFC00EB800000EB80006668B600B0FB96
:101A9000F6F6FFF7B5FC00EB800000EB8000636812
:101AA0009B00B0FBF3F0A7FB0030400908FB106877
:101AB0004FEA081808F13208A7FB0837C7F34317A5
:101AC00023682F449F60BDE8F88300BF00100140E9
:101AD0001F85EB512DE9F04105460F461646984605
:101AE000069C2B681B6837EA03030CBF0123002305
:101AF000B3421DD1B4F1FF3FF3D02CB1FEF7A2FFEA
:101B0000A0EB0800A042ECD92A68D36823F4D07374
:101B1000D3602A68536923F001035361202385F8B9
:101B2000393085F83A30002385F83830032000E05A
:101B30000020BDE8F081704758B310B5044690F816
:101B400039300BB3242384F839302268D36823F466
:101B50000053D3602046FFF723FE2268136923F465
:101B6000904313612268536923F02A03536122686A
:101B7000D36843F40053D3600020E063202384F84B
:101B8000393084F83A3010BD80F83830FFF7D3FF91
:101B9000D8E7012070472DE9F04182B01E4690F849
:101BA0003930DBB2202B55D104460D469046002932
:101BB00055D0002A55D090F83830012B53D001234E
:101BC00080F838300023C363212380F83930FEF7D2
:101BD00039FF0746A4F82480A4F8268010E0009678
:101BE0003B46002280212046FFF774FF00283CD1AD
:101BF0002B882268C3F3080353602369C3B90235F5
:101C0000E38C9BB2B3B1E38C013B9BB2E384A3684A
:101C1000B3F5805FE3D000963B460022802120464A
:101C2000FFF758FF18BB2A7823685A600135E7E7A9
:101C30000135E5E700963B46002240212046FFF7AC
:101C400049FF0346A8B9202284F83920002284F8ED
:101C5000382000E00223184602B0BDE8F0810123DD
:101C6000F9E70123F7E70223F5E70323F3E703236B
:101C7000F1E70323EFE72DE9F04182B01E4690F82B
:101C80003A30DBB2202B5AD104460D46904600294B
:101C900059D0002A59D090F83830012B57D0012361
:101CA00080F838300023C363222380F83A30FEF7EF
:101CB000C9FE0746A4F82C80A4F82E801DE00096EB
:101CC0003B46002220212046FFF704FF002840D198
:101CD000236933B923685B68C3F3080325F8023B23
:101CE0000BE023685B68DBB225F8013B05E0236865
:101CF0005B6803F07F032B700135E38D9BB2BBB1B2
:101D0000E38D013B9BB2E385A368B3F5805FD6D03A
:101D100000963B46002220212046FFF7DBFED0B98B
:101D20002369002BE3D123685B682B700135E4E75E
:101D3000202384F83A30002084F8380000E00220A4
:101D400002B0BDE8F0810120FAE70120F8E70220A7
:101D5000F6E70320F4E70320F2E710B58AB01C464B
:101D60008DF80C008DF80D108DF80E2001AB0021C0
:101D70000191CDF8071005913F22ADF810208A227D
:101D8000ADF8122003AA06920322079208930723B4
:101D9000099304A800F002FC00280FDB9DF8040062
:101DA00050B9BDF805302380BDF807200C9B1A8080
:101DB000BDF809200D9B1A800AB010BDFF20FBE77B
:101DC00070B58AB00E4615461C468DF80C0001AB66
:101DD00000210191CDF8071005913F22ADF81020A8
:101DE0008A22ADF8122003AA0692012207920893D4
:101DF0000723099304A800F0D1FB00280DDB9DF810
:101E0000040040B9BDF805303380BDF807302B80A1
:101E1000BDF8093023800AB070BDFF20FBE770B524
:101E200092B09DF85C509DF864402E190E36282E15
:101E30004AD88DF80400ADF80510ADF807208DF8EC
:101E400009309DF858308DF80A308DF80B5001AEEE
:101E50002A46189903A801F04FFF05F1080312AABA
:101E600052FA83F303F8444C0935EDB222461A992D
:101E7000701901F041FF2C44E4B212AB2344BDF8C9
:101E80006C2023F8442CA31C12AA52FA83F3BDF849
:101E9000702023F8442C0434E4B200210D913F2338
:101EA000ADF830308323ADF832300E960F940DF13B
:101EB0002F031093012311930CA800F06FFB00284F
:101EC00005DB9DF82F0000E0422012B070BDFF201E
:101ED000FBE710B58EB08DF804008DF8051014687E
:101EE00050689168D268CDF80640CDF80A00CDF868
:101EF0000E10CDF812208DF816309DF840308DF878
:101F000017309DF844308DF81830129BCDF81930F9
:101F10009DF84C308DF81D30002109913F23ADF81C
:101F200020308623ADF8223001AB0A931A230B939D
:101F30000DF103030C9301230D9308A800F02EFB71
:101F4000002803DB9DF803000EB010BDFF20FBE767
:101F50001F2824D830B591B0044610AD05F83C0DCB
:101F600002460DF1050001F0C7FE601CC0B2002161
:101F70000B913F23ADF828308E23ADF82A300C9515
:101F80000D900DF127030E9301230F930AA800F083
:101F900005FB002805DB9DF8270011B030BD42206D
:101FA0007047FF20F9E700B589B0ADF804008DF85F
:101FB00006103F23ADF808309323ADF80A3001AB8B
:101FC0000493032305930F2303930DF10303069357
:101FD00001230793002102A800F0E0FA002804DBA7
:101FE0009DF8030009B05DF804FBFF20FAE700B597
:101FF00089B000210391049105913F23ADF8083089
:1020000040F20113ADF80A300DF1070306930123E6
:10201000079302A800F0C2FA002804DB9DF807002D
:1020200009B05DF804FBFF20FAE770B58CB01646E6
:102030001D468DF80000012831D0102422460DF1F4
:10204000010001F059FE631C0CAA134403F8306C24
:10205000A31C134403F8305C033405AB0021ADF836
:1020600014108DF8161007913F22ADF818204FF488
:102070008172ADF81A20CDF820D009940A93032379
:102080000B9306A800F08AFA00280ADB9DF81400DA
:1020900018B9BDF81520109B1A800CB070BD022431
:1020A000CCE7FF20F9E770B58EB016461D46ADF8B7
:1020B00000008DF80210012951D01024224631462B
:1020C0000DF1030001F018FEE31C0EAA134403F8FF
:1020D000385C231D13449DF8482003F8382C631DF9
:1020E0000EAA13449DF84C2003F8382CA31D0EAA09
:1020F00013449DF8502003F8382CE31D0EAA134416
:102100009DF8542003F8382C04F108030EAA134458
:102110009DF8582003F8382C093407AB0021ADF89E
:102120001C108DF81E1009913F22ADF820204FF4AD
:102130008272ADF82220CDF828D00B940C930323A3
:102140000D9308A800F02AFA00280ADB9DF81C006D
:1021500018B9BDF81D20179B1A800EB070BD02245F
:10216000ACE7FF20F9E710B5A8B09C1D802C29DC56
:102170001C46ADF80400ADF806108DF808208DF867
:1021800009301A462A990DF10A0001F0B5FDA31D88
:10219000DBB2002123913F22ADF888204FF48372F7
:1021A000ADF88A2001AA249225930DF18703269386
:1021B0000123279322A800F0F1F9002805DB9DF800
:1021C000870000E0422028B010BDFF20FBE730B5BB
:1021D000A9B09DF8B040E51D802D29DCADF80400C4
:1021E000ADF806108DF808208DF809308DF80A40FA
:1021F00022462D990DF10B0001F07EFDECB200217D
:1022000023913F23ADF888304FF49373ADF88A30B3
:1022100001AB249325940DF1870326930123279383
:1022200022A800F0BBF9002805DB9DF8870000E03C
:10223000422029B030BDFF20FBE700B589B0ADF8E2
:102240000400002103913F23ADF8083040F227132A
:10225000ADF80A3001AB0493022305930DF103039B
:1022600006930123079302A800F098F9002804DBE5
:102270009DF8030009B05DF804FBFF20FAE78B1C12
:10228000802B28DC10B5A8B013460C468DF804004E
:102290008DF805100A4619460DF1060001F02CFDD7
:1022A0000234E4B2002123913F23ADF888300C239F
:1022B000ADF88A3001AB249325940DF18703269362
:1022C0000123279322A800F069F9002805DB9DF877
:1022D000870028B010BD42207047FF20F9E700B505
:1022E00089B08DF804008DF80510002103913F237B
:1022F000ADF808300F23ADF80A3001AB0493022388
:1023000005930DF1030306930123079302A800F040
:1023100045F9002804DB9DF8030009B05DF804FBD3
:10232000FF20FAE730B585B005460C4602AB0093B6
:102330000DF10A030DF10E0203A90DF10F0000F0DB
:1023400034F8C0B298B9BDF80C301A0A2A701B02D2
:102350009AB2BDF808301B091B0103F0F0031343C8
:102360001BB2BDF8082002F00F021343238005B012
:1023700030BD00B589B0002103910491059103237C
:10238000ADF80830ADF80A300DF1070306930123CC
:10239000079302A800F002F9002804DB9DF807006B
:1023A00009B05DF804FBFF20FAE7F0B58BB00746F3
:1023B0000E4615461C4601AB0021019102918DF895
:1023C0000C100591069107910422ADF8102001220E
:1023D000ADF8122008930923099304A800F0DEF851
:1023E000002814DB9DF8040078B99DF805303B7097
:1023F000BDF8063033809DF808302B70BDF80930E9
:102400002380BDF80B20109B1A800BB0F0BDFF207D
:10241000FBE7F0B591B006460F4602AD20242246F8
:102420000021284601F073FC8DF8086032461F2E0B
:1024300028BF1F2239460DF1090001F05DFC002183
:102440000B910823ADF828300923ADF82A300C95FC
:102450000D940DF107030E9301230F930AA800F0CA
:102460009DF8002803DB9DF8070011B0F0BDFF20A8
:10247000FBE7037A042B01D001207047827A90F8A1
:102480008830033B9A4201D10020704702207047F8
:1024900010B5A2B01446C1F3090141EA8021ADF89C
:1024A000041001218DF80810BDF80410ADF80910D2
:1024B0008DF80B20194603A801F01EFC034B1B6985
:1024C00013B1211D02A8984722B010BDD0000020F2
:1024D00000B583B007E001A9074800F08EF9019923
:1024E000064800F072F9054800F0ABF90128F2DD6A
:1024F00003B05DF804FB00BF280500202005002084
:1025000030B583B005460C4607E001A9204600F02F
:1025100086F90199284600F04CF9204600F03DF973
:102520000028F2D003B030BD10B508B1104AD06118
:1025300000F0A4FE0F4800F02DF90F4800F02AF932
:10254000002408E00D4B8C2101FB0431094800F008
:102550003CF90134E4B2042CF4D9054B1B680BB1EF
:1025600000209847024B9B6803B1984710BD00BFFD
:10257000D00000202005002028050020F0000020C9
:102580000268054B1A60C268DA6002691A618269E2
:102590009A6182689A607047D000002070B584B05C
:1025A00004460D46B0F90230C3F30903028843EA3A
:1025B00082239EB20023039301A800F0EBF8FFF7FB
:1025C00087FFA368227B61882088FFF761FF002DC9
:1025D00040F08480FEF736FA0546FEF733FA401BDA
:1025E000B0F57A7F51D83E4800F0D7F80028F4D1F2
:1025F00003A93B4800F001F9039B1A7A042A10D181
:1026000003F10B0193F88820D01E5A7A0F2A32D09A
:1026100017D9102A39D03E2A03D1D97A626891425B
:1026200049D0304800F0B9F820B12D4800F0B5F895
:1026300000284CD1039901A800F0C7F800230393A8
:10264000C8E70E2AEDD19A89B2421ED1C21E606936
:10265000824228BF0246626103F10E01206901F047
:102660004BFB03991F4800F0A4F801A91C48FFF791
:1026700047FF002014E0B3F80D20B24205D1626894
:102680000F2A0FD0DB7A002BCBD0039911B115485C
:1026900000F08FF801A91248FFF732FF4FF0FF302A
:1026A00004B070BD6269824228BF0246626120693F
:1026B00001F022FBD5E7421E61698A4228BF0A4623
:1026C000626103F10C01206901F016FBC9E703996F
:1026D000044800F07AF8002303937BE70020DFE74B
:1026E000280500202005002000B583B000230193B9
:1026F00003E001990A4800F068F80A4800F04DF834
:1027000058B901A9074800F078F8074BDB69002B9E
:10271000EFD0019808309847EBE703B05DF804FB71
:102720002005002028050020D000002010B582B030
:1027300000230193144800F030F808B102B010BD36
:1027400001A9114800F059F8104BDB68002BF5D0B7
:102750008021019808309847C0B280B1019C84F86C
:1027600088002046FFF785FE20B92146084800F082
:102770002CF8E3E72146044800F01BF8DEE7019956
:10278000014800F016F8D9E720050020D00000200D
:1027900028050020006040607047EFF3108372B698
:1027A0000268824203D0002083F310887047012022
:1027B000FAE7EFF3108372B602680A6048600160BE
:1027C0000A68516083F310887047EFF3108372B684
:1027D000086042684A6041604A68116083F310886B
:1027E0007047EFF3108372B64268016811600268A7
:1027F0004168516083F31088704738B50D46EFF398
:10280000108472B603680B600068FFF7EAFF2A685D
:10281000002313602A68536084F3108838BD38B5EC
:102820000D46EFF3108472B643680B604068FFF703
:10283000D8FF2A68002313602A68536084F3108845
:1028400038BDEFF3108172B60368002201E0013257
:102850001B688342FBD181F310881046704708B58E
:102860000021084601F0FAF8002001F0B1F800203C
:1028700001F06EF908BD70B505460C461646FEF728
:10288000E1F82044304401F04BFA002404E001F068
:102890006BFA28550134E4B2042CF8D9D0232B5517
:1028A00070BD0000F0B585B0604B0FCB04AC04E9FF
:1028B0000F005F4B1B7813B15E4B1B78D3B95E4B97
:1028C0001B68002B66D15B4B5B781BB15A4B1B68B6
:1028D000002B6AD0574B5B781BB9574B1B68002BFA
:1028E00067D0544B1B781BB1534B1B68002B64D033
:1028F00005B0F0BD00F054FF00254D4B1D7028467B
:1029000001F0FEF84D4B18704A4C2570012363709E
:102910004B4D2846FDF7F0FF0246294601A801F07D
:1029200077FAA378DBB2012B19D069461020FFF7A4
:102930000FFBE0B9434E3046FDF7DEFF0746851931
:10294000414C0FCCB8516960AA60EB6007CC28619C
:102950006961AA612288A378AA83AB77AFE70022D6
:10296000A27042238DF80E308DF80F30DDE7354E22
:102970003046FDF7C1FF07468519344C0FCCB851DE
:102980006960AA60EB6007CC28616961AA6123884D
:10299000AB8394E7002001F043F8264B00225A70E5
:1029A0004FF47A70FEF754F88DE7002001F04CF8F0
:1029B00097E7002001F03EF893E71E4B00221A70C3
:1029C0001F4C2046FDF798FF0246214601A801F062
:1029D0001FFA69461020FFF7BBFA90B1194E304636
:1029E000FDF78AFF07468519184C0FCCB85169606E
:1029F000AA60EB6007CC28616961AA612388AB8378
:102A000076E7104E3046FDF777FF074685190E4CE6
:102A10000FCCB8516960AA60EB6007CC286169618E
:102A2000AA612288A378AA83AB7761E734460008BD
:102A300048000020AC030020B00400203605002030
:102A40003805002008000020684600088846000875
:102A5000F0B589B0FFF703FF00214748FFF764FD99
:102A60000DF116010DF11900FFF75CFCFFF781FC79
:102A70006420FDF7EDFF9DF81910302902D93F4B76
:102A80000122DA703E4CBDF816202046FFF7F3FE17
:102A9000224606210020FFF7F2FBFFF7A8FA374B8A
:102AA000DB78012B08D00DF11A0307AA0DF11E01E6
:102AB0000120FFF785F90BE00DF11A03019307AB35
:102AC00000930DF11E03072200210120FFF745F9B5
:102AD000BDF81C10BDF81E002A4B009304230022F1
:102AE000FFF741FB00B1FEE701200390264B029364
:102AF000002101911023009307230A46FFF7E9F90B
:102B000000B1FEE700F026F9034648BB1F4E3046F1
:102B1000FDF7F2FE074685191D4C0FCCB8516960D0
:102B2000AA60EB6007CC28616961AA6100F03EF8F9
:102B30000346D8B9154E3046FDF7DEFE0746851927
:102B4000144C0FCCB8516960AA60EB602068286112
:102B5000A388AB8204210120FFF7C1FB09B0F0BDBF
:102B60000A4802460C4901F033F9DFE707480246FC
:102B70000A4901F02DF9EDE76D380008AC0300209B
:102B800030050020A846000840E2010008000020AF
:102B9000B0460008FC460008CC4600081447000870
:102BA00008B5FFF77FFEFFF79FFD08BD30B58BB07E
:102BB000FB238DF8183034238DF819309B238DF8C2
:102BC0001A305F238DF81B3080228DF81C200023E3
:102BD0008DF81D308DF81E308DF81F208DF82030B7
:102BE00010228DF821208DF822308DF82330842298
:102BF0008DF82420FE228DF825208DF826308DF8C2
:102C000027304E4D06AC0FCC28606960AA60EB609F
:102C10004B4B00930823012229460220FFF705FAB7
:102C2000002840F0828096238DF8183005238DF817
:102C3000193048238DF81A30EA238DF81B3084238D
:102C40008DF81C3034238DF81D303F238DF81E3055
:102C500092238DF81F30E6238DF820304C238DF819
:102C600021309F238DF82230F3238DF823308223E7
:102C70008DF82430C0238DF8253030238DF8263090
:102C80002D238DF827302F4D06AC0FCC28606960BE
:102C9000AA60EB602A4B18882B4B05930023049302
:102CA000102203920422029201931223009308231C
:102CB0002A460221FFF7F7F900283AD183238DF83D
:102CC000243006AC0FCC28606960AA60EB601C4B16
:102CD00018881E4B059300220492102303930221AF
:102CE000029101920C2200922A46FFF7DCF910BBF8
:102CF00084238DF8243006AC0FCC28606960AA606C
:102D0000EB600F4B1888124B05930022049210239E
:102D100003930221029101920C2200922A46FFF7AE
:102D2000C2F9034610B1472300E0472318460BB011
:102D300030BD4723FAE74723F8E700BF6C050020C2
:102D400060050020500500204E050020640500208D
:102D50004805002030B58BB0FB238DF818303423A4
:102D60008DF819309B238DF81A305F238DF81B30B6
:102D700080228DF81C2000238DF81D308DF81E3028
:102D80008DF81F208DF8203010228DF821208DF82D
:102D900022308DF823300A228DF8242018228DF855
:102DA00025208DF826308DF827301B4D0DEB0204C1
:102DB0000FCC28606960AA60EB60184B0093082371
:102DC000012229460220FFF730F908BB05238DF8C0
:102DD00024302A238DF82530114D06AC0FCC286005
:102DE0006960AA60EB600D4B18880E4B05930023B9
:102DF0000493102203920422029201930221009173
:102E000008232A46FFF74FF9034610B1472300E095
:102E1000472318460BB030BD6C0500204C05002040
:102E2000500500204A05002070B588B006460D46C2
:102E30001446FDF707FEC0F3C7008DF80C00FDF740
:102E400001FEC0F3C7208DF80D0073685A428DF85B
:102E50000E20C2F307238DF80F3033688DF8103041
:102E6000C3F307238DF81130B3685A428DF812204E
:102E7000C2F307238DF813306B688DF81430C3F359
:102E800007238DF815302B688DF81630C3F3072310
:102E90008DF81730AB688DF81830C3F307238DF821
:102EA000193063688DF81A30C3F307238DF81B308F
:102EB00023688DF81C30C3F307238DF81D30A368F9
:102EC0008DF81E30C3F307238DF81F30084B188888
:102ED000084B198803AB009314230022FFF743F932
:102EE000034610B9184608B070BD4723FAE700BF83
:102EF000660500206805002030B585B004460D4603
:102F0000FDF7A0FDC0F3C7008DF80800FDF79AFD9E
:102F1000C0F3C7208DF809008DF80A40C4F30723D9
:102F20008DF80B30C4F307438DF80C30240E8DF868
:102F30000D408DF80E50C5F307258DF80F50084B46
:102F40001888084B198802AB009308230022FFF76A
:102F50000AF9034610B9184605B030BD4723FAE711
:102F60006605002044050020F8B52DED028B354B99
:102F70001B88013398420BD0334B1B880133984296
:102F80000CD0324B1888002858D1BDEC028BF8BD0C
:102F90002F4A30493048FFF747FFF2E700F0E4FEE0
:102FA000C717BB00840043EA90756FF0004200230E
:102FB000201845EB0701FDF71FFBFDF797FA0022EC
:102FC000264BFDF713F9FDF7C7FA08EE100A00F0DB
:102FD000CBFE0646C717021847EB0703101843EB52
:102FE00007014B0143EAD0634201141843EB01058A
:102FF0006FF000420023301947EB0501FDF7FCFAA2
:10300000FDF774FA0022164BFDF7F0F8FDF7A4FA6D
:10301000DFED147A07EE100A67EE277AB2EE047A33
:1030200028EE078ABDEEC88A18EE103A19B2FDEEF6
:10303000E77A17EE900AFFF75FFFA2E7FFF7FDF8C8
:10304000A3E700BF6805002044050020B604002067
:10305000E8040020F40400200005002000003B40AC
:1030600000408F400000C84270B586B00024009434
:10307000154B1A6B42F001021A631B6B03F001033C
:103080000093009B01260196104B02930394104D70
:1030900001A92846FDF758FD4FF48073019302966D
:1030A0000394049401A92846FDF74EFD02230193E1
:1030B00002960394049401A92846FDF745FD00F00B
:1030C00055FB06B070BD00BF003802400000111073
:1030D0000000024010B5084C01212046FDF706FE15
:1030E00002212046FDF702FE4FF480712046FDF7D5
:1030F000FDFD002010BD00BF0000024010B50A4CCD
:1031000000224FF480712046FDF775FE0520FDF783
:103110009FFC01224FF480712046FDF76CFE0520D4
:10312000FDF796FC002010BD0000024070B584B091
:1031300006460D46FF238DF80F300B238DF808301F
:1031400000228DF809208DF80A208DF80B208DF8CB
:103150000C2002211948FDF74EFE0522694602A8FF
:1031600000F0CCFA9DF80030022B08D00024012298
:1031700002211248FDF73FFE204604B070BD9DF8C5
:1031800004209DF8033053EA022314D0AB4200D848
:103190001D4600240BE001220DF10E010DF10F0080
:1031A00000F0ACFA9DF80E3033550134E4B2A3B20E
:1031B000AB42F0D3DBE70024D9E700BF00000240B8
:1031C000F0B585B007460E460A238DF80830002377
:1031D0008DF809308DF80A308DF80B308DF80C30F1
:1031E000FDF730FC054611E09DF80130B3421ED2D8
:1031F0006FF00104012202211348FDF7FCFDFDF7E9
:1032000021FC401B0F2819D8002C19DA00220221BA
:103210000D48FDF7F0FD0522694602A800F06EFAA0
:103220009DF80030022BDFD04FF0FF34E2E732464A
:103230000649384600F062FA0024DBE76FF002042A
:10324000204605B0F0BD00BF00000240B0030020E2
:1032500008B501210348FDF7C7FD012814BF002070
:10326000012008BD0000024008B502E00020FFF781
:103270005DFAFFF7EDFF0028F8D108BD10B588B062
:10328000114B0193114B0293114B0593114B049376
:10329000114B0393114B079301A8FFF771F9104CE1
:1032A0004FF0C061204600F067FC0E4A0021204626
:1032B00000F05CFC002211460620FDF7EFFB062023
:1032C000FDF720FC08B010BD69300008D5300008BB
:1032D000C13100082D310008FD30000829370008F1
:1032E0007C05002069320008F0B58BB000240594FD
:1032F00006940794089409940194324B1A6B42F097
:1033000004021A631A6B02F004020192019A0294F9
:103310001A6B42F080021A631A6B02F0800202926A
:10332000029A03941A6B42F001021A631A6B02F0BC
:1033300001020392039A04941A6B42F002021A6388
:103340001B6B03F002030493049B1F4F22464FF4B0
:1033500091713846FDF74FFD1C4D224680212846CD
:10336000FDF749FD4FF400530593194B069307945D
:1033700005A92846FDF7E8FB01260596154B06939F
:10338000079405A93846FDF7DFFB4FF491730593C9
:1033900006960794089405A93846FDF7D5FB8023C7
:1033A000059306960794089405A92846FDF7CCFBDB
:1033B000224621460620FDF771FB0620FDF7A2FB01
:1033C0000BB0F0BD0038024000000240000802408F
:1033D000000021100000111030B587B00446002510
:1033E0000095154B5A6C42F020025A645B6C03F056
:1033F00020030093009B4FF4C053019302230293D8
:1034000001230393032304930823059301A90B4885
:10341000FDF79AFB0A4B23604FF4E1336360A5602C
:10342000E56025610C236361A561E5612046FEF737
:1034300083FB07B030BD00BF0038024000000240EF
:103440000014014010B584B004460023009301939A
:10345000029303934FF47A73012269460D48FEF7F5
:103460000AFC9DF80030022B02D0012004B010BDF0
:103470004FF4FA630A2269460648FEF7FCFB08B1DE
:103480000120F3E70A226946204600F0C1FC002033
:10349000ECE700BF9005002030B595B03022002148
:1034A00008A800F034FC00240394049405940694C6
:1034B000079401941A4B1A6C42F080521A641B6CE8
:1034C00003F080530193019B0294164B1A6842F457
:1034D00040421A601B6803F440430293029B02259A
:1034E000089501230B9310230C930E950F941093C2
:1034F0004FF4A873119304231293139308A8FDF7B4
:1035000085FC0F230393049505944FF48053069391
:103510000794294603A8FDF7B1FE15B030BD00BFE2
:10352000003802400070004030B583B0002500959F
:10353000ADF80450FDF760FAFFF7AEFFFFF7D4FED9
:103540004A48FFF749FFFFF783FA494C01228021DF
:103550002046FDF750FC9620FDF77AFA2A46802196
:103560002046FDF748FC4FF4FA70FDF771FA01228E
:1035700080212046FDF73FFC9620FDF769FA2A4698
:1035800080212046FDF737FC1AE03A4B01221A70E1
:1035900039483A4B02463A4900F01AFC394B1B783D
:1035A000002B5DD0384B1B78002B3CD001228021B2
:1035B0002F48FDF720FCFFF7F3FA6420FDF748FAE7
:1035C0002D4C2046FDF798F94FF4FA7382B221464C
:1035D0002E48FEF7E0FA002323702D48FFF732FF54
:1035E0000028DBD10023274A1370274A1370294B88
:1035F00001221A70264B1B78DBB25F2BC5D01D4B06
:1036000000221A70224D2846FDF776F91B4C02461F
:103610002946204600F0FCFB1748234602461E4977
:1036200000F0D6FBBAE702AC022304F8083D0422FE
:103630001A490DF1010000F0EBFB0D238DF8053068
:10364000C823062221460948FEF7A5FA0028ADD175
:103650000D4B01221A704FF49670FDF7F9F9A5E7AA
:10366000002280210248FDF7C6FBA4E79005002058
:1036700000080240AE0300200800002038050020AA
:1036800058470008D8040020AF040020300600206E
:1036900084050020AC03002040470008B804002047
:1036A000F0B587B000240094114B5A6C42F480525C
:1036B0005A645B6C03F480530093009BC023019316
:1036C000022702970394032604960525059501A970
:1036D0000848FDF739FA08230193029703940496EA
:1036E000059501A90448FDF72FFA07B0F0BD00BF0A
:1036F00000380240000002400004024010B582B0D1
:1037000014464FF47A73009313460A46014605485F
:10371000FDF726FF10B9204602B010BD6FF005007E
:10372000FAE700BFD005002008B5FDF78BF908BD0A
:1037300008B50D4A02604FF4827242600022826036
:10374000C260026142614FF4007181611821C16160
:103750000262426282620A22C262FDF7C1FE034631
:1037600000B10123184608BD0030014010B50A48D9
:103770000A4B0360FEF710F808B1002010BD064C9C
:103780002046FFF78DFF2046FFF7D2FF0028F5D037
:103790006FF00700F2E700BFD005002000300140C5
:1037A00010B58CB0104B93E803000A908DF82C10E4
:1037B0001B890CAC24F80C3D00210846FEF729FEBD
:1037C0000020069005900494022303930AAB029311
:1037D00005230193009001234FF4F0624FF4C86178
:1037E000FEF71DFB0CB010BD44460008034B002241
:1037F0001A600349012008701A717047B004002054
:1038000048000020F8B50546134B01221A60D98004
:10381000124F3846FDF770F88446C619104C0FCC8D
:103820004CF807007160B260F36020683061A388D3
:10383000B382052406E009482B5D0246094900F0E1
:10384000C7FA013C002CF6D104482B780246064901
:1038500000F0BEFAF8BD00BFB00400200800002050
:103860007047000888470008904700080378042B39
:1038700000D07047F0B583B0044643783E2B69D042
:10388000FF2B03D0052B62D003B0F0BDB0F803309E
:1038900040F61342934217D040F614429342F3D1BC
:1038A000314F3846FDF728F88446C6192F4D0FCD05
:1038B0004CF807007160B260F3602B883382B4F873
:1038C0000700FFF751FBDFE7B0F80720284B1B8804
:1038D00001339A4226D0274B1B8801339A4228D0C5
:1038E00004F10A03B4F80710B4F805000193637AF1
:1038F000009300231A46FEF76AFC0021B4F8050085
:10390000FEF751FB1C4B1B7AFF2B19D01A4C1648A3
:1039100004F108030246194900F05AFA012384F819
:103920002830B1E7427A00F10A01154800F070FA38
:10393000D6E7427A00F10A01114800F069FACFE7B0
:1039400009480F4B02460F4900F042FA9CE7FFF787
:103950004DFF99E7C378012B96D1B0F805100930D7
:10396000FFF750FF90E700BF080000209C470008C9
:103970006405002048050020B0040020B04700087E
:10398000B8040020CC47000800B587B0002300939E
:103990000D4B1A6C42F400321A641B6C03F40033B2
:1039A0000093009B0C2301930223029301230393B2
:1039B000032304930723059301A90448FDF7C4F8E2
:1039C00007B05DF804FB00BF003802400000024071
:1039D00070B586B0002400940F4B1A6B42F00102C0
:1039E0001A631B6B03F001030093009B01230293F6
:1039F000039302230493202606A941F8146D074D72
:103A00002846FDF7A1F8224631462846FDF7F3F98E
:103A1000204606B070BD00BF0038024000000240E2
:103A200008B5012220210248FDF7E5F9002008BD74
:103A30000000024008B5002220210248FDF7DBF912
:103A4000002008BD0000024008B520210248FDF713
:103A5000D8F9002008BD00BF0000024030B587B093
:103A60000446204B204A43F82020002000901F4BA2
:103A70001A6B42F004021A631B6B03F004030093F9
:103A8000009B4FF40053019303900223049321B150
:103A900001290BD0002007B030BD029001A900F130
:103AA000804000F50230FDF74FF8F3E7104B02932A
:103AB00001A91048FDF748F80A4D0F4955F82400B0
:103AC00000F05AF80D4A002155F8240000F04EF895
:103AD00000220F212820FCF7E1FF2820FDF712F833
:103AE000D8E700BF700600202806002000380240FA
:103AF00000001110000802400D000006173B0008EE
:103B000008B54FF400510248FDF76EF908BD00BF3B
:103B100000080240704708B50020FFF7FBFF08BD12
:103B200008B50A4A02604FF4E13242600022826026
:103B3000C26002610C2141618261C261FDF7FCFF3C
:103B4000034600B10123184608BD00BF00440040F1
:103B500010B5054C04EB80142046FFF715FF2046F6
:103B6000FFF7DEFF002010BD3006002011B94260D3
:103B7000002070470120704710B10160002070479D
:103B80000120704708B5036803F01F02012393402A
:103B9000044A52691A4204D0024A5361436803B18D
:103BA000984708BD003C014000B583B0002100915A
:103BB0000C4B5A6C42F480425A645A6C02F48042B4
:103BC0000092009A01911A6C42F080521A641B6CA8
:103BD00003F080530193019B0720FCF74DFF03B0D6
:103BE0005DF804FB003802407047FEE7FEE7FEE7A1
:103BF000FEE770477047704708B5FCF717FF08BD30
:103C000008B50248FFF7BEFF08BD00BF7C050020D5
:103C10000F49D1F8883043F47003C1F888300D4B58
:103C20001A6842F001021A60002098601A6822F0B7
:103C3000847222F480321A60074A5A601A6822F4A9
:103C400080221A60D8604FF000638B60704700BF1D
:103C500000ED00E00038024010300024DFF834D0DE
:103C6000002103E00C4B5B58435004310B480C4BD4
:103C700042189A42F6D30B4A02E0002342F8043B72
:103C8000094B9A42F9D3FFF7C3FF00F011F8FFF791
:103C90004BFC7047000002202C4800080000002068
:103CA000B4000020B400002078060020FEE70000E9
:103CB00070B50D4E0D4CA41BA4100025A54209D1D2
:103CC0000B4E0C4C00F0AAFCA41BA4100025A5422E
:103CD00005D170BD56F8253098470135EEE756F806
:103CE000253098470135F2E72448000824480008A9
:103CF000244800082848000810B5431E0A44914291
:103D000000D110BD11F8014B03F8014FF7E7024451
:103D10000346934200D1704703F8011BF9E7000006
:103D200038B50D4B1C68A36B05467BB9182000F015
:103D300085F80A4A0A4BA063C0E90023094B836057
:103D40000B23838101220023C0E90423A36B0022FB
:103D50001D615A6138BD00BF500000200E33CDAB4D
:103D600034126DE6ECDE050038B5134B1C68A36B0E
:103D70007BB9182000F062F8104A114BA063C0E92B
:103D80000023104B83600B23838101220023C0E9B1
:103D90000423A16B0C480A694B690C4C504304FB8B
:103DA0000300A2FB04230344541C43F10005C1E9B2
:103DB000044525F0004038BD500000200E33CDAB47
:103DC00034126DE6ECDE05002DF451582D7F954C34
:103DD0000EB400B59CB01DAB029006906FF0004190
:103DE000094807910491094953F8042B059100688B
:103DF000019302A900F02CF9029B00221A701CB05A
:103E00005DF804EB03B07047500000200802FFFF8C
:103E100070B50139044602B970BD234611F8015F3F
:103E200003F8015B561E2DB91444A342F4D003F8E5
:103E3000015BFAE71C463246EDE70000024B014603
:103E4000186800F051B800BF5000002038B5054692
:103E5000002945D051F8043C0C1F002BB8BFE418D2
:103E600000F09DFB1F4A1368104633B9636014606D
:103E70002846BDE8384000F093BBA3420CD9216826
:103E80006218934204BF1A685B68636004BF5218EB
:103E900022600460ECE713465A680AB1A242FAD9DC
:103EA00019685818A0420BD1206801445818824262
:103EB0001960DDD1106852685A6001441960D7E773
:103EC00002D90C232B60D3E7206821188A4204BF53
:103ED00011685268626004BF091821605C60C7E71E
:103EE00038BD00BF1005002070B5CD1C25F00305BE
:103EF00008350C2D38BF0C25002D064601DBA942E4
:103F000003D90C233360002070BD00F048FB214A28
:103F10001468214691B9204C23681BB9304600F043
:103F200015FB20602946304600F010FB431C24D1CD
:103F30000C233360304600F033FBE4E70B685B1B77
:103F400018D40B2B0FD90B60CD50CC18304600F095
:103F500027FB04F10B00231D20F00700C31AD3D068
:103F60005A42E250D0E78C424B6816BF6360136040
:103F70000C46EBE70C464968CCE7C41C24F003046C
:103F8000A04205D0211A304600F0E0FA0130CFD02F
:103F90002560DBE710050020140500202DE9F0471F
:103FA0008E689E4282460C469046994637D88A894A
:103FB00012F4906F31D0256809696F1A6569022380
:103FC00005EB450595FBF3F509F101033B449D42E3
:103FD00038BF1D46530530D52946FFF785FF0646F5
:103FE00050B90C23CAF80030A38943F04003A381E1
:103FF0004FF0FF30BDE8F0873A462169FFF77CFEBD
:10400000A38923F4906343F08003A3812661656153
:104010003E44ED1B2660A5604E464E4500D94E46F7
:1040200032464146206800F0A1FAA3689B1BA360BA
:1040300023681E4426600020DCE72A4600F0B1FA1F
:1040400006460028E2D121695046FFF7FFFEC8E787
:104050002DE9F04F9DB0804603938B891D060C46D9
:1040600016460FD50B696BB94021FFF73DFF206065
:10407000206128B90C23C8F800304FF0FF30C7E0AA
:10408000402363610023099320238DF829303023D6
:104090008DF82A304FF0010B37463D4615F8013BAD
:1040A0000BB1252B3ED1B7EB060A0BD05346324657
:1040B00021464046FFF772FF013000F0A480099BC3
:1040C000534409933B78002B00F09D8000234FF070
:1040D000FF32CDE90523049307938DF853301A93EB
:1040E0002F46052217F8011B4F48FCF711FC049BD3
:1040F000D0B9D90644BF20228DF853201A0744BFF7
:104100002B228DF853202A782A2A15D0079A2F4679
:1041100000200A25394611F8013B303B092B4DD9C7
:10412000B8B10FE02F46B8E73F4A801A0BFA00F00B
:10413000184304903D46D3E7039A111D126803917A
:10414000002A01DB079204E0524243F00203079287
:1041500004933B782E2B0CD17B782A2B33D1039BF5
:104160001A1D1B680392002BB8BF4FF0FF330237B4
:1041700005932E4D397803222846FCF7C9FB38B148
:104180004023401B03FA00F0049B034301370493D0
:10419000397827488DF8281006227E1CFCF7B8FBDA
:1041A000002838D0234B13BB039B073323F00703AE
:1041B00008330393099B4B4409936DE705FB0232D7
:1041C00001200F46A6E700230137059319460A256B
:1041D000384610F8012B303A092A03D9002BC8D0F1
:1041E0000591C6E705FB012101230746F0E703AB74
:1041F00000932246104B04A94046AFF30080B0F173
:10420000FF3F8146D6D1A3895B063FF536AF0998BB
:104210001DB0BDE8F08F03AB00932246064B04A906
:10422000404600F081F8EAE7E8470008EE4700085A
:10423000F2470008000000009D3F00082DE9F0470C
:1042400091461F468A680B69DDF820809342B8BF0B
:104250001346C9F8003091F8432006460C4612B1C7
:104260000133C9F800302368990642BFD9F80030FD
:104270000233C9F80030256815F0060507D104F1AE
:10428000190AE368D9F800209B1AAB4228DC94F89D
:1042900043302268003318BF012392062DD404F165
:1042A000430239463046C047013020D02368E568D4
:1042B000D9F8002003F00603042B08BFAD1AA36849
:1042C00022690CBF25EAE57500259342C4BF9B1AFD
:1042D000ED184FF000091A344D451AD1002008E0BE
:1042E0000123524639463046C047013003D14FF0D2
:1042F000FF30BDE8F0870135C3E7E1185A1C3020D4
:1043000081F84300224494F8451082F843100233A8
:10431000C5E70123224639463046C0470130E6D082
:1043200009F10109D8E700002DE9F04301F1430C40
:104330000C46097E85B06E291746064698460C9AAB
:1043400000F0B38022D8632936D00AD8002900F0C3
:10435000B980582900F0838004F1420584F84210A6
:1043600032E0642901D06929F6D120681368050676
:1043700003F104012AD51B681160002B03DA2D22FA
:104380005B4284F843206F480A2239E0732900F029
:104390009D8008D86F2920D07029DDD1236843F093
:1043A0002003236003E0752917D07829D4D178231E
:1043B00084F84530644855E01368191D1B68116086
:1043C00004F1420584F8423001238CE01B6811603F
:1043D00010F0400F18BF1BB2CFE713682568181DF7
:1043E0001060280601D51B6802E06806FBD51B8813
:1043F00054486F2914BF0A220822002184F8431070
:104400006568A560002DC0F29580216821F0040147
:104410002160002B3DD1002D40F08E806546082A9A
:104420000BD12368DB0708D5236962689A42DEBF97
:10443000302305F8013C05F1FF35ACEB05032361A2
:10444000CDF800803B4603AA21463046FFF7F6FE32
:1044500001304DD14FF0FF3005B0BDE8F083394851
:1044600084F84510136821681D1D1B6815600A0635
:104470000BD5CA0744BF41F0200121601BB9226857
:1044800022F0200222601022B7E74D0648BF9BB2FF
:10449000EFE76546B3FBF2F102FB1133C35C05F8AD
:1044A000013D0B460029F5D1B9E71368256861691C
:1044B000181D106028061B6801D5196002E06A0605
:1044C000FBD51980002323616546B9E71368191DE0
:1044D00011601D68626800212846FCF719FA08B1CE
:1044E000401B606063682361002384F84330A7E7C2
:1044F00023692A4639463046C0470130AAD023688E
:104500009B0713D4E068039B9842B8BF1846A3E703
:1045100001234A4639463046C04701309AD001351A
:10452000E368039A9B1AAB42F2DCEBE7002504F147
:104530001909F5E7002BACD1037884F8423004F177
:1045400042056CE7F94700080A48000838B5064CF0
:10455000002305460846236000F052F8431C02D1B0
:10456000236803B12B6038BD74060020884210B563
:1045700001EB020307D8421E99420AD011F8014B01
:1045800002F8014FF8E78342F5D98118D21AD342D5
:1045900000D110BD13F8014D01F8014DF7E7704748
:1045A0007047F8B5074614460E4621B91146BDE8D6
:1045B000F840FFF799BC22B9FFF748FC254628468A
:1045C000F8BD00F014F8A0420FD221463846FFF79C
:1045D0008BFC05460028F2D031462246FFF78CFBC3
:1045E00031463846FFF732FCE9E73546E7E751F850
:1045F000043C181F002BBCBF0B58C01870470000AC
:10460000044A05491368002B08BF0B461844106084
:10461000184670471805002078060020F8B500BF3E
:10462000F8BC08BC9E467047F8B500BFF8BC08BC93
:044630009E467047EB
:104634000F16222241414141414141414141414101
:10464400094253434800000002110000000000002A
:10465400000000000102030406070809000000002E
:1046640001020304555044415445204144565F4AD5
:1046740049472064617461207375636365737321B2
:104684000A0D0000555044415445204144565F4AA8
:1046940049472064617461206661696C6564210A1C
:1046A4000D000000425343480000000044455649B1
:1046B4004345494E464F20536572766963652061D0
:1046C40064646564200A0D002573444556494345D6
:1046D400494E464F20536572766963652061646470
:1046E400206661696C6564206572726F723A20306D
:1046F40078253032780A0D004D52425420536572A9
:1047040076696365206164646564200A0D000000B5
:1047140025734D5242542053657276696365206156
:104724006464206661696C6564206572726F723AB4
:10473400203078253032780A0D0000002573726627
:1047440069642072656365697665643A2025730D32
:104754000A00000025734A49472046494E495348F8
:1047640045443A2025730D0A00000000436F6E6E25
:10477400656374656420746F206465766963653A63
:10478400200000002573253032582D002573253074
:1047940032580D0A00000000736F6D657468696E0D
:1047A400672072656164200A0D0000002573706142
:1047B400747465726E2072656365697665643A2007
:1047C40025730A0D0000000025734A4947204669F5
:1047D4006E69736865642041434B3A2025730A0D62
:1047E40000000000232D302B2000686C4C0065660F
:1047F400674546470030313233343536373839412E
:104804004243444546003031323334353637383943
:08481400616263646566000047
:08481C000CBEFF7F010000004B
:04482400C5010008C2
:04482800A1010008E2
:10482C0001000000100000005374617274696E671F
:10483C00204E52472D424C452066726F6D204D61C3
:10484C007261626F75740A0D0000000000000000B8
:10485C00000000000000000000000000000000004C
:10486C000000000000000000010000000024F40023
:10487C0054000020000000000000000000000000B8
:10488C00000000000000000000000000000000001C
:10489C00000000000000000000000000000000000C
:1048AC0000000000000000000000000000000000FC
:1048BC0000000000000000000000000000000000EC
:1048CC0000000000000000000000000000000000DC
:0448DC0000000000D8
:0400000508003C5D56
:00000001FF
