:020000040800F2
:10000000000002202D3D0008B93C0008BB3C000860
:10001000BD3C0008BF3C0008C13C000800000000D7
:10002000000000000000000000000000C33C0008C9
:10003000C53C000800000000C73C0008C93C00089F
:100040007D3D00087D3D00087D3D00087D3D0008A8
:100050007D3D00087D3D0008D13C00087D3D000845
:100060007D3D00087D3D00087D3D00087D3D000888
:100070007D3D00087D3D00087D3D00087D3D000878
:100080007D3D00087D3D00087D3D0008000000002A
:100090000000000000000000000000007D3D00089E
:1000A0007D3D00087D3D00087D3D00087D3D000848
:1000B0007D3D00087D3D00087D3D00087D3D000838
:1000C0007D3D00087D3D00087D3D00087D3D000828
:1000D0007D3D00087D3D00087D3D000800000000DA
:1000E0007D3D00087D3D00087D3D000800000000CA
:1000F0000000000000000000000000007D3D00083E
:10010000000000007D3D00087D3D00087D3D0008A9
:1001100000000000000000000000000000000000DF
:100120007D3D00087D3D00087D3D00087D3D0008C7
:100130007D3D0008000000000000000000000000FD
:100140000000000000000000000000007D3D0008ED
:100150007D3D00087D3D00087D3D00087D3D000897
:100160007D3D00087D3D000800000000000000000B
:10017000000000000000000000000000000000007F
:10018000000000007D3D00080000000000000000AD
:080190007D3D00087D3D0008E3
:1001980010B5054C237833B9044B13B10448AFF3B9
:1001A80000800123237010BD7400002000000000AF
:1001B800A43F000808B5034B1BB103490348AFF33C
:1001C800008008BD0000000078000020A43F00085F
:1001D80081F0004102E000BF83F0004330B54FEAF0
:1001E80041044FEA430594EA050F08BF90EA020F5D
:1001F8001FBF54EA000C55EA020C7FEA645C7FEAF0
:10020800655C00F0E2804FEA5454D4EB5555B8BF12
:100218006D420CDD2C4480EA020281EA030382EA83
:10022800000083EA010180EA020281EA0303362D15
:1002380088BF30BD11F0004F4FEA01314FF4801CE8
:100248004CEA113102D0404261EB410113F0004FFA
:100258004FEA03334CEA133302D0524263EB4303B1
:1002680094EA050F00F0A780A4F10104D5F1200E4F
:100278000DDB02FA0EFC22FA05F2801841F10001AA
:1002880003FA0EF2801843FA05F359410EE0A5F17E
:1002980020050EF1200E012A03FA0EFC28BF4CF0AF
:1002A800020C43FA05F3C01851EBE37101F0004565
:1002B80007D54FF0000EDCF1000C7EEB00006EEB72
:1002C8000101B1F5801F1BD3B1F5001F0CD34908FC
:1002D8005FEA30004FEA3C0C04F101044FEA445253
:1002E80012F5800F80F09A80BCF1004F08BF5FEADA
:1002F800500C50F1000041EB045141EA050130BDBA
:100308005FEA4C0C404141EB010111F4801FA4F15C
:100318000104E9D191F0000F04BF01460020B1FAB1
:1003280081F308BF2033A3F10B03B3F120020CDAE9
:100338000C3208DD02F1140CC2F10C0201FA0CF0C7
:1003480021FA02F10CE002F11402D8BFC2F1200C2C
:1003580001FA02F120FA0CFCDCBF41EA0C019040E2
:10036800E41AA2BF01EB0451294330BD6FEA04042B
:100378001F3C1CDA0C340EDC04F11404C4F1200216
:1003880020FA04F001FA02F340EA030021FA04F328
:1003980045EA030130BDC4F10C04C4F1200220FA7F
:1003A80002F001FA04F340EA0300294630BD21FABD
:1003B80004F0294630BD94F0000F83F4801306BF83
:1003C80081F480110134013D4EE77FEA645C18BF77
:1003D8007FEA655C29D094EA050F08BF90EA020F0E
:1003E80005D054EA000C04BF1946104630BD91EA06
:1003F800030F1EBF0021002030BD5FEA545C05D109
:100408004000494128BF41F0004130BD14F5800447
:100418003CBF01F5801130BD01F0004545F0FE41BB
:1004280041F470014FF0000030BD7FEA645C1ABFF0
:10043800194610467FEA655C1CBF0B46024650EA27
:10044800013406BF52EA033591EA030F41F4002153
:1004580030BD00BF90F0000F04BF0021704730B5D9
:100468004FF4806404F132044FF000054FF00001AE
:1004780050E700BF90F0000F04BF0021704730B56F
:100488004FF4806404F1320410F0004548BF404244
:100498004FF000013EE700BF42004FEAE2014FEA99
:1004A80031014FEA02701FBF12F07F4393F07F4F74
:1004B80081F06051704732F07F4208BF704793F077
:1004C8007F4F04BF41F40021704730B54FF460748A
:1004D80001F0004521F000411CE700BF50EA01028D
:1004E80008BF704730B54FF000050AE050EA010236
:1004F80008BF704730B511F0004502D5404261EBA6
:1005080041014FF4806404F132045FEA915C3FF4E6
:10051800D8AE4FF003025FEADC0C18BF03325FEA83
:10052800DC0C18BF033202EBDC02C2F1200300FA34
:1005380003FC20FA02F001FA03FE40EA0E0021FA59
:1005480002F11444BDE600BF4FEA4102B2F1E043B4
:1005580024BFB3F5001CDCF1FE5C0DD901F0004CA2
:100568004FEAC0024CEA5070B2F1004F40EB8300F2
:1005780008BF20F00100704711F0804F21D113F11E
:100588003872BCBF01F00040704741F480114FEA57
:100598005252C2F11802C2F1200C10FA0CF320FAE0
:1005A80002F018BF40F001004FEAC1234FEAD323FD
:1005B80003FA0CFC40EA0C0023FA02F34FEA430367
:1005C800CCE77FEA625307D150EA01331EBF4FF0F0
:1005D800FE4040F44000704701F0004040F0FE400B
:1005E80040F40000704700BF53B94AB9002908BF5A
:1005F80000281CBF4FF0FF314FF0FF3000F072B9F8
:10060800ADF1080C6DE904CE00F006F8DDF804E061
:10061800DDE9022304B070472DE9F047089E04463F
:100628008846002B4BD18A42154667D9B2FA82F226
:100638004AB1C2F1200701FA02F320FA07F7954000
:1006480047EA030894404FEA154E230CB8FBFEF71F
:100658001FFA85FC0EFB178843EA084307FB0CF1D9
:10066800994209D9EB1807F1FF3080F01B819942B4
:1006780040F21881023F2B445B1AA4B2B3FBFEF090
:100688000EFB103344EA034400FB0CFCA44509D9D3
:100698002C1900F1FF3380F00781A44540F2048152
:1006A80002382C4440EA0740A4EB0C0400271EB192
:1006B800D4400023C6E900433946BDE8F0878B42A1
:1006C80009D9002E00F0EB800027C6E90001384662
:1006D8003946BDE8F087B3FA83F7002F47D18B423C
:1006E80002D3824200F2FA80841A61EB03030120EC
:1006F8009846002EE0D0C6E90048DDE702B9FFDEE3
:10070800B2FA82F2002A40F08F80491B4FEA154E58
:100718001FFA85F80127B1FBFEFC230C0EFB1C1108
:1007280043EA014308FB0CF1994207D9EB180CF195
:10073800FF3002D2994200F2CD808446591AA3B202
:10074800B1FBFEF00EFB101443EA044408FB00F86A
:10075800A04507D92C1900F1FF3302D2A04500F2B9
:10076800B6801846A4EB080440EA0C409FE7C7F19E
:10077800200CBB4022FA0CFE4EEA030E01FA07F4E5
:1007880020FA0CF521FA0CF34FEA1E482543B3FB77
:10079800F8F92C0C08FB19331FFA8EFA44EA0343C4
:1007A80009FB0AF49C4202FA07F200FA07F10BD996
:1007B8001EEB030309F1FF3080F087809C4240F272
:1007C8008480A9F1020973441B1BADB2B3FBF8F096
:1007D80008FB103345EA034400FB0AFAA24508D98E
:1007E8001EEB040400F1FF336BD2A24569D902382D
:1007F800744440EA0940A0FB0289A4EB0A044C4572
:10080800C2464B4654D351D0002E69D0B1EB0A05ED
:1008180064EB030404FA0CFCFD40FC404CEA0505BB
:10082800C6E90054002747E7C2F1200320FA03F77E
:10083800954001FA02F021FA03F34FEA154E3843C6
:10084800010CB3FBFEF71FFA85F80EFB173341EADC
:10085800034107FB08F38B4204FA02F407D969182D
:1008680007F1FF3C2FD28B422DD9023F2944CB1AE6
:1008780081B2B3FBFEF00EFB103341EA034100FBEB
:1008880008F38B4207D9691800F1FF3C17D28B4255
:1008980015D902382944C91A40EA07473BE73746C1
:1008A800304609E70746E7E61846FBE64145ABD27E
:1008B800B8EB020A69EB0E0201381346A4E760465A
:1008C800E9E7184695E76746D1E781467CE70238AD
:1008D8002C4447E7ACF1020C2B442FE7384608E7D5
:1008E8003746E9E6704700BF034613F8012B002A94
:1008F800FBD1181A0138704710B504460E4B18780A
:100908004FF47A73B3FBF0F30C4A1068B0FBF3F0C2
:1009180000F0A8F868B90F2C01D901200AE00022DC
:1009280021464FF0FF3000F05DF8034B5C6000207B
:1009380000E0012010BD00BF000000200C000020D6
:1009480008B50B4B1A6842F400721A601A6842F430
:1009580080621A601A6842F480721A60032000F0FC
:100968002FF80020FFF7C8FF03F082F9002008BD28
:10097800003C0240034A1168034B1B780B44136088
:10098800704700BFBC04002000000020014B18681D
:10099800704700BFBC04002038B50446FFF7F6FFD7
:1009A8000546B4F1FF3F02D0044B1B781C44FFF707
:1009B800EDFF401BA042FAD338BD00BF0000002065
:1009C800074AD36823F4E0631B041B0C000200F4FD
:1009D800E060184340F0BF6040F40030D0607047DA
:1009E80000ED00E030B4174BDB68C3F30223C3F11A
:1009F8000704042C28BF04241D1D062D18D9033B09
:100A08004FF0FF3505FA04F421EA0401994005FA8C
:100A180003F322EA0303194300280BDB0901C9B2D7
:100A280000F1604000F5614080F8001330BC704769
:100A38000023E5E700F00F000901C9B2024B195481
:100A4800F4E700BF00ED00E014ED00E000F01F0245
:100A5800400901239340024A42F82030704700BF02
:100A680000E100E00138B0F1807F0AD2064B5860FF
:100A7800064AF02182F823100020986007221A60A5
:100A880070470120704700BF10E000E000ED00E073
:100A980000230F2B00F2C580F0B482B039E00422A5
:100AA80000E00022B2403A4302345E4E46F8242069
:100AB8005D4A1468EA4302EA04064F6817F4803F67
:100AC80001D045EA0406584C2660646802EA040628
:100AD8004F6817F4003F01D045EA0406524C66609F
:100AE800A46802EA04064F6817F4801F01D045EA9B
:100AF80004064D4CA660E46822404E6816F4001FB8
:100B080001D045EA0402484CE26001330F2B00F2A1
:100B1800858001229A400C6804EA0205AA42F4D1B1
:100B28004C68022C01D0122C10D1DE08083650F87F
:100B380026C003F00704A7000F24BC402CEA040CCD
:100B48000C69BC4044EA0C0440F8264004685F0085
:100B58000326BE40F64306EA040C4C6804F003047E
:100B6800BC4044EA0C0404604C6804F1FF3CBCF14E
:100B7800010F03D9112C01D0122C10D1846806EA78
:100B8800040CCC68BC4044EA0C048460446824EA41
:100B980002024C68C4F300149C4014434460C268C9
:100BA80016408A68BA403243C2604A6812F0805FD1
:100BB800ABD0002201921D4A546C44F48044546422
:100BC800526C02F480420192019A9C08A61C154AB4
:100BD80052F8267003F0030296000F22B24027EA6B
:100BE8000207134A90423FF45CAF02F580629042DC
:100BF8000ED002F5806290420CD002F580629042DD
:100C08000AD002F5806290423FF449AF072249E7D3
:100C1800012247E7022245E7032243E702B0F0BC7E
:100C28007047704700380140003C014000380240DE
:100C38000000024000230F2B72D8F0B509E004250C
:100C480000E0002505FA02F2A24250D001330F2B32
:100C580065D801229A4002EA0106B242F6D1056837
:100C68005F000324BC40E443254005604FEAD30CF1
:100C78000CF1080C50F82CE003F00705AD000F2725
:100C880007FA05F52EEA050540F82C508568254039
:100C98008560456825EA02024260C2681440C46063
:100CA8004FEA930C0CF102041E4A52F8244003F058
:100CB8000302920097403C401B4DA842C1D005F565
:100CC8008065A8420DD005F58065A8420BD005F5D2
:100CD8008065A84209D005F58065A842AFD00725F0
:100CE800B0E70125AEE70225ACE70325AAE70D4DDD
:100CF8000CF1020255F8224024EA070745F8227051
:100D08000A4C2568F2431540256065681540656002
:100D1800A5681540A560E5682A40E26096E7F0BD41
:100D2800704700BF0038014000000240003C01400D
:100D38000369194201D1002070470120704712B998
:100D48000904816170478161704743695940416175
:100D580070470000002800F0BB8170B582B00446DF
:100D6800036813F0010F3BD0A74B9B6803F00C03FB
:100D7800042B2CD0A44B9B6803F00C03082B21D028
:100D88006368B3F5803F4FD0B3F5A02F52D09E4B88
:100D98001A6822F480321A601A6822F480221A60D3
:100DA8006368002B50D0FFF7F1FD0546964B1B6892
:100DB80013F4003F14D1FFF7E9FD401B6428F5D96F
:100DC80003208AE1904B5B6813F4800FD8D08E4BD8
:100DD8001B6813F4003F03D06368002B00F07A818E
:100DE800236813F0020F55D0874B9B6813F00C0F44
:100DF8003ED0854B9B6803F00C03082B33D0E36887
:100E0800002B68D0814B01221A60FFF7BFFD054611
:100E18007D4B1B6813F0020F54D1FFF7B7FD401B41
:100E28000228F5D9032058E1774A136843F4803340
:100E38001360B5E7744B1A6842F480221A601A6886
:100E480042F480321A60ABE7FFF7A0FD05466E4B0F
:100E58001B6813F4003FC3D0FFF798FD401B6428BC
:100E6800F5D9032039E1684B5B6813F4800FC6D1CC
:100E7800654B1B6813F0020F04D0E368012B01D007
:100E880001202AE1604A136823F0F803216943EA44
:100E9800C1031360236813F0080F40D0636963B37C
:100EA8005B4B01221A60FFF771FD0546564B5B6FDD
:100EB80013F0020F33D1FFF769FD401B0228F5D963
:100EC80003200AE1504A136823F0F803216943EA32
:100ED800C1031360DEE74D4B00221A60FFF756FD91
:100EE8000546494B1B6813F0020FD3D0FFF74EFDA0
:100EF800401B0228F5D90320EFE0454B00221A6079
:100F0800FFF744FD0546404B5B6F13F0020F06D018
:100F1800FFF73CFD401B0228F5D90320DDE02368DC
:100F280013F0040F79D0384B1B6C13F0805F33D16A
:100F380000230193344B1A6C42F080521A641B6CE4
:100F480003F080530193019B0125324B1B6813F476
:100F5800807F23D0A368012B34D0052B38D02A4BAF
:100F68001A6F22F001021A671A6F22F004021A6738
:100F7800A368002B36D0FFF709FD0646224B1B6FEE
:100F880013F0020F48D1FFF701FD801B41F28833AF
:100F98009842F3D90320A0E00025D6E71D4A13683C
:100FA80043F480731360FFF7F1FC0646194B1B6886
:100FB80013F4807FCED1FFF7E9FC801B0228F5D916
:100FC80003208AE0104A136F43F001031367CFE749
:100FD8000D4B1A6F42F004021A671A6F42F00102B1
:100FE8001A67C5E7FFF7D2FC0646074B1B6F13F0DD
:100FF800020F11D0FFF7CAFC801B41F288339842D8
:10100800F3D9032069E000BF0038024000004742DE
:10101800800E474200700040E5B9A369002B5BD001
:10102800304A926802F00C02082A58D0022B17D0D6
:101038002D4B00221A60FFF7A9FC0446294B1B68B8
:1010480013F0007F42D0FFF7A1FC001B0228F5D95E
:10105800032042E0234A136C23F080531364DCE737
:10106800214B00221A60FFF791FC05461D4B1B68B7
:1010780013F0007F06D0FFF789FC401B0228F5D942
:1010880003202AE0E369226A1343626A43EA82136F
:10109800A26A5208013A43EA0243E26A43EA026357
:1010A800104A5360104B01221A60FFF76FFC044688
:1010B8000C4B1B6813F0007F06D1FFF767FC001B81
:1010C8000228F5D9032008E0002006E0002004E00B
:1010D80001207047012000E0002002B070BD01200F
:1010E800FBE700BF0038024060004742324B9B6874
:1010F80003F00C03042B5CD0082B01D02F48704759
:101108002DE9F04B2C4B5A6802F03F025B6813F450
:10111800800F2BD0284B5B68C3F388131E4600272B
:101128005C010025E41A65EB0705A90141EA946111
:10113800A001001B61EB0501CB0043EA5073C4001A
:10114800A01943EB07014B0243EAD053440220465F
:1011580019460023FFF748FA174B5B68C3F30143AE
:1011680001335B00B0FBF3F0BDE8F08B124B5B681A
:10117800C3F388131E4600275C010025E41A65EBBB
:101188000705A90141EA9461A001001B61EB050173
:10119800CB0043EA5073C400A01943EB07018B024C
:1011A80043EA90538402204619460023FFF71CFAAD
:1011B800D2E70348704700BF003802400024F4001B
:1011C80000127A00002800F09D8070B504464F4B4D
:1011D8001B6803F00F038B4209D2CBB24B4A137042
:1011E800136803F00F038B4201D0012070BD236800
:1011F80013F0020F17D013F0040F04D0444A936879
:1012080043F4E0539360236813F0080F04D0404A76
:10121800936843F4604393603D4A936823F0F00376
:10122800A068034393600D46236813F0010F32D082
:101238006368012B21D09A1E012A25D9344A1268E5
:1012480012F0020F60D032498A6822F00302134379
:101258008B60FFF79BFB06462D4B9B6803F00C0346
:101268006268B3EB820F16D0FFF790FB801B41F248
:1012780088339842F0D90320B8E7254A126812F457
:10128800003FE0D10120B1E7214A126812F0007F47
:10129800D9D10120AAE71D4B1B6803F00F03AB420D
:1012A80009D9EAB2194B1A701B6803F00F03AB4255
:1012B80001D001209AE7236813F0040F06D0144ADE
:1012C800936823F4E053E1680B439360236813F0B9
:1012D800080F07D00E4A936823F46043216943EA54
:1012E800C1039360FFF702FF094B9B68C3F3031325
:1012F800084AD35CD840084B18600020FFF7FCFA76
:10130800002073E70120704701206FE7003C02408E
:1013180000380240CC3F00080C000020014B186840
:10132800704700BF0C00002008B5FFF7F7FF044B1B
:101338009B68C3F38223034AD35CD84008BD00BF2F
:1013480000380240DC3F000808B5FFF7E7FF044B10
:101358009B68C3F34233034AD35CD84008BD00BF3F
:1013680000380240DC3F0008F8B505460F4616462F
:101378001C463BE02CB1FFF709FB069BC01AA042B4
:1013880034D32A68536823F0E00353606B68B3F5DD
:10139800827F0BD0AB6AB3F5005F14D0012385F8C8
:1013A8005130002385F85030032027E0AB68B3F5AF
:1013B800004F02D0B3F5806FECD12A68136823F090
:1013C80040031360E6E72A68136823F400531B04FC
:1013D8001B0C13602A68136843F400531360DDE79D
:1013E8000123B34209D0B4F1FF3FC3D12B689B68F6
:1013F80037EA0303F4D00023F3E70020F8BD10B563
:1014080082B0044600920B4600228021FFF7ACFF11
:10141800034610B9184602B010BD636D43F02003AF
:1014280063650323F6E7704700283BD010B50446F0
:101438000023836290F85130002B2ED0022384F8C9
:1014480051302268136823F0400313606368A26870
:101458001343E26813432269134362691343A26981
:1014680002F400721343E2691343226A1343A16A28
:1014780022680B431360638B03F00403616A2268DC
:101488000B4353602268D36923F40063D3610020BF
:101498006065012384F8513010BD80F85030FFF7A3
:1014A800C2FFCBE7012070472DE9F04385B099468C
:1014B8000C9D90F85030012B00F0108104460F4627
:1014C8001646012380F85030FFF760FA804694F8FA
:1014D8005130DBB26268012B15D0B2F5827F0AD099
:1014E8000223012284F85120002284F85020184653
:1014F80005B0BDE8F083A268002A40F0E780042B1D
:1015080001D00223EDE7002F00F0E280002E00F06A
:10151800E180B9F1000F00F0DF8094F85130DBB2C0
:10152800012B2BD000236365A663A4F83E90A4F892
:101538003C902763A4F83690A4F83490236463643D
:1015480023681A6812F0400F03D11A6842F040026B
:101558001A60E368B3F5006F14D063681BB1E38EBB
:101568009BB2012B07D1236817F8012B1A73E38E5E
:10157800013B9BB2E3864FF0010961E0052384F843
:101588005130CFE763681BB1E38E9BB2012B07D1C3
:10159800236837F8022BDA60E38E013B9BB2E386BF
:1015A8004FF0010913E0E38F9BB26BB123689A688F
:1015B80012F0010F08D0DB6826F8023BE38F013BED
:1015C8009BB2E3874FF00109B5F1FF3F1CD1E38ED1
:1015D8009BB21BB9E38F9BB2002B55D0B9F1000F1A
:1015E800E1D0E38E9BB2002BDDD023689A6812F01D
:1015F800020FD8D037F8022BDA60E38E013B9BB29A
:10160800E3864FF00009CEE7FFF7C0F9A0EB08002A
:10161800A842DCD3032364E7E38F9BB26BB1236852
:101628009A6812F0010F08D0DB683370E38F013B32
:101638009BB2E38701364FF00109B5F1FF3F1BD19B
:10164800E38E9BB213B9E38F9BB2EBB1B9F1000FF4
:10165800E2D0E38E9BB2002BDED023689A6812F0AA
:10166800020FD9D03A781A73E38E013B9BB2E38616
:1016780001374FF00009CFE7FFF788F9A0EB080022
:10168800A842DDD303232CE7CDF800802B460122A6
:1016980002212046FFF768FE08B1032321E74246EE
:1016A80029462046FFF7ABFE034618B120236365A1
:1016B800012316E7A268002A7FF413AF0392226879
:1016C800D168039192680392039A0AE7022308E714
:1016D800012306E7012304E7012302E7022306E7C3
:1016E80090F85100704700002DE9F843044601685E
:1016F8000A6922F44052C36813430B610168CA683F
:1017080022F4164222F00C028368006903436069E0
:101718000343E06903431343CB6021684A6922F419
:101728004072A36913434B61E369B3F5004F60D07E
:101738002368B84A934200F0148102F5806293420C
:1017480000F00F81FFF7F0FD00EB800000EB800058
:101758006568AD00B0FBF5F5AF4FA7FB05356D0922
:101768002E01FFF7E1FD00EB800000EB80006568CB
:10177800AD00B0FBF5F9FFF7D7FD00EB800000EBFB
:1017880080006568AD00B0FBF5F5A7FB05356D0970
:101798004FF0640808FB15952D013235A7FB053578
:1017A8006D0905F0F0053544FFF7BEFD00EB80003C
:1017B80000EB80006668B600B0FBF6F6FFF7B4FDF4
:1017C80000EB800000EB800063689B00B0FBF3F047
:1017D800A7FB0030400908FB10684FEA081808F119
:1017E8003208A7FB0837C7F3431723682F449F60C5
:1017F8000DE12368874A93425BD002F580629342E9
:1018080057D0FFF791FD00EB800000EB8000656882
:101818006D00B0FBF5F5804FA7FB05356D092E016E
:10182800FFF782FD00EB800000EB800065686D002B
:10183800B0FBF5F9FFF778FD00EB800000EB8000C6
:1018480065686D00B0FBF5F5A7FB05356D094FF030
:10185800640808FB1595ED003235A7FB05356D09C1
:101868006D0005F4F8753544FFF75EFD00EB800068
:1018780000EB800066687600B0FBF6F6FFF754FDD3
:1018880000EB800000EB800063685B00B0FBF3F3C3
:10189800A7FB03235B0908FB13684FEAC80808F194
:1018A8003208A7FB0837C7F3421723682F449F6005
:1018B800ADE0FFF749FD00EB800000EB80006568B4
:1018C8006D00B0FBF5F5544FA7FB05356D092E01EA
:1018D800FFF73AFD00EB800000EB800065686D00C3
:1018E800B0FBF5F9FFF730FD00EB800000EB80005E
:1018F80065686D00B0FBF5F5A7FB05356D094FF080
:10190800640808FB1595ED003235A7FB05356D0910
:101918006D0005F4F8753544FFF716FD00EB8000FF
:1019280000EB800066687600B0FBF6F6FFF70CFD6A
:1019380000EB800000EB800063685B00B0FBF3F312
:10194800A7FB03235B0908FB13684FEAC80808F1E3
:101958003208A7FB0837C7F3421723682F449F6054
:1019680055E0FFF7F1FC00EB800000EB80006568B4
:10197800AD00B0FBF5F5284FA7FB05356D092E0125
:10198800FFF7E2FC00EB800000EB80006568AD002B
:10199800B0FBF5F9FFF7D8FC00EB800000EB800006
:1019A8006568AD00B0FBF5F5A7FB05356D094FF08F
:1019B800640808FB15952D013235A7FB05356D091F
:1019C80005F0F0053544FFF7BFFC00EB800000EBA5
:1019D80080006668B600B0FBF6F6FFF7B5FC00EBD2
:1019E800800000EB800063689B00B0FBF3F0A7FB6E
:1019F8000030400908FB10684FEA081808F132085F
:101A0800A7FB0837C7F3431723682F449F60BDE837
:101A1800F88300BF001001401F85EB512DE9F0410C
:101A280005460F4616469846069C2B681B6837EAFB
:101A380003030CBF01230023B3421DD1B4F1FF3FC0
:101A4800F3D02CB1FEF7A2FFA0EB0800A042ECD91E
:101A58002A68D36823F4D073D3602A68536923F0C3
:101A680001035361202385F8393085F83A30002383
:101A780085F83830032000E00020BDE8F081704789
:101A880058B310B5044690F839300BB3242384F8C2
:101A980039302268D36823F40053D3602046FFF717
:101AA80023FE2268136923F4904313612268536963
:101AB80023F02A0353612268D36843F40053D360A8
:101AC8000020E063202384F8393084F83A3010BDD0
:101AD80080F83830FFF7D3FFD8E7012070472DE9A9
:101AE800F04182B01E4690F83930DBB2202B55D138
:101AF80004460D469046002955D0002A55D090F846
:101B08003830012B53D0012380F838300023C363C9
:101B1800212380F83930FEF739FF0746A4F82480DE
:101B2800A4F8268010E000963B460022802120463B
:101B3800FFF774FF00283CD12B882268C3F3080301
:101B480053602369C3B90235E38C9BB2B3B1E38C0C
:101B5800013B9BB2E384A368B3F5805FE3D00096B2
:101B68003B46002280212046FFF758FF18BB2A7801
:101B780023685A600135E7E70135E5E700963B46FB
:101B8800002240212046FFF749FF0346A8B920223A
:101B980084F83920002284F8382000E0022318460F
:101BA80002B0BDE8F0810123F9E70123F7E702233A
:101BB800F5E70323F3E70323F1E70323EFE710B582
:101BC8008AB01C468DF80C008DF80D108DF80E208B
:101BD80001AB00210191CDF8071005913F22ADF826
:101BE80010208A22ADF8122003AA06920322079237
:101BF80008930723099304A800F0A8FB00280FDB2B
:101C08009DF8040050B9BDF805302380BDF80720C1
:101C18000C9B1A80BDF809200D9B1A800AB010BDD4
:101C2800FF20FBE770B58AB00E4615461C468DF8B6
:101C38000C0001AB00210191CDF8071005913F225E
:101C4800ADF810208A22ADF8122003AA06920122CC
:101C5800079208930723099304A800F077FB00284C
:101C68000DDB9DF8040040B9BDF805303380BDF8A0
:101C780007302B80BDF8093023800AB070BDFF20E3
:101C8800FBE770B592B09DF85C509DF864402E1942
:101C98000E36282E4AD88DF80400ADF80510ADF898
:101CA80007208DF809309DF858308DF80A308DF8E6
:101CB8000B5001AE2A46189903A802F081F805F1E5
:101CC800080312AA52FA83F303F8444C0935EDB21B
:101CD80022461A99701902F073F82C44E4B212AB38
:101CE8002344BDF86C2023F8442CA31C12AA52FAF2
:101CF80083F3BDF8702023F8442C0434E4B20021A7
:101D08000D913F23ADF830308323ADF832300E9675
:101D18000F940DF12F031093012311930CA800F0D9
:101D280015FB002805DB9DF82F0000E0422012B0CB
:101D380070BDFF20FBE710B58EB08DF804008DF85C
:101D48000510146850689168D268CDF80640CDF83F
:101D58000A00CDF80E10CDF812208DF816309DF837
:101D680040308DF817309DF844308DF81830129BAC
:101D7800CDF819309DF84C308DF81D3000210991AF
:101D88003F23ADF820308623ADF8223001AB0A930B
:101D98001A230B930DF103030C9301230D9308A849
:101DA80000F0D4FA002803DB9DF803000EB010BD44
:101DB800FF20FBE71F2824D830B591B0044610ADAA
:101DC80005F83C0D02460DF1050001F0F9FF601C15
:101DD800C0B200210B913F23ADF828308E23ADF817
:101DE8002A300C950D900DF127030E9301230F93C4
:101DF8000AA800F0ABFA002805DB9DF8270011B00F
:101E080030BD42207047FF20F9E700B589B00021B6
:101E18000391049105913F23ADF8083040F2011376
:101E2800ADF80A300DF1070306930123079302A8C2
:101E380000F08CFA002804DB9DF8070009B05DF873
:101E480004FBFF20FAE770B58CB016461D468DF8E6
:101E58000000012831D0102422460DF1010001F0C4
:101E6800AFFF631C0CAA134403F8306CA31C134483
:101E780003F8305C033405AB0021ADF814108DF87D
:101E8800161007913F22ADF818204FF48172ADF873
:101E98001A20CDF820D009940A9303230B9306A89F
:101EA80000F054FA00280ADB9DF8140018B9BDF8B0
:101EB8001520109B1A800CB070BD0224CCE7FF20BF
:101EC800F9E770B58EB016461D46ADF800008DF8DE
:101ED8000210012951D01024224631460DF1030089
:101EE80001F06EFFE31C0EAA134403F8385C231DAF
:101EF80013449DF8482003F8382C631D0EAA134498
:101F08009DF84C2003F8382CA31D0EAA13449DF805
:101F1800502003F8382CE31D0EAA13449DF85420D2
:101F280003F8382C04F108030EAA13449DF858202E
:101F380003F8382C093407AB0021ADF81C108DF8D4
:101F48001E1009913F22ADF820204FF48272ADF89F
:101F58002220CDF828D00B940C9303230D9308A8C6
:101F680000F0F4F900280ADB9DF81C0018B9BDF848
:101F78001D20179B1A800EB070BD0224ACE7FF200D
:101F8800F9E710B5A8B09C1D802C29DC1C46ADF8DB
:101F98000400ADF806108DF808208DF809301A46AF
:101FA8002A990DF10A0001F00BFFA31DDBB20021F5
:101FB80023913F22ADF888204FF48372ADF88A2030
:101FC80001AA249225930DF18703269301232793D1
:101FD80022A800F0BBF9002805DB9DF8870000E087
:101FE800422028B010BDFF20FBE700B589B0ADF84E
:101FF8000400002103913F23ADF8083040F2271375
:10200800ADF80A3001AB0493022305930DF10303E5
:1020180006930123079302A800F098F9002804DB2F
:102028009DF8030009B05DF804FBFF20FAE78B1C5C
:10203800802B28DC10B5A8B013460C468DF8040098
:102048008DF805100A4619460DF1060001F0B8FE94
:102058000234E4B2002123913F23ADF888300C23E9
:10206800ADF88A3001AB249325940DF187032693AC
:102078000123279322A800F069F9002805DB9DF8C1
:10208800870028B010BD42207047FF20F9E700B54F
:1020980089B08DF804008DF80510002103913F23C5
:1020A800ADF808300F23ADF80A3001AB04930223D2
:1020B80005930DF1030306930123079302A800F08B
:1020C80045F9002804DB9DF8030009B05DF804FB1E
:1020D800FF20FAE730B585B005460C4602AB009301
:1020E8000DF10A030DF10E0203A90DF10F0000F026
:1020F80034F8C0B298B9BDF80C301A0A2A701B021D
:102108009AB2BDF808301B091B0103F0F003134312
:102118001BB2BDF8082002F00F021343238005B05C
:1021280030BD00B589B000210391049105910323C6
:10213800ADF80830ADF80A300DF107030693012316
:10214800079302A800F002F9002804DB9DF80700B5
:1021580009B05DF804FBFF20FAE7F0B58BB007463D
:102168000E4615461C4601AB0021019102918DF8DF
:102178000C100591069107910422ADF81020012258
:10218800ADF8122008930923099304A800F0DEF89B
:10219800002814DB9DF8040078B99DF805303B70E1
:1021A800BDF8063033809DF808302B70BDF8093033
:1021B8002380BDF80B20109B1A800BB0F0BDFF20C8
:1021C800FBE7F0B591B006460F4602AD2024224643
:1021D8000021284601F0FFFD8DF8086032461F2EC9
:1021E80028BF1F2239460DF1090001F0E9FD002141
:1021F8000B910823ADF828300923ADF82A300C9547
:102208000D940DF107030E9301230F930AA800F014
:102218009DF8002803DB9DF8070011B0F0BDFF20F2
:10222800FBE7037A042B01D001207047827A90F8EB
:102238008830033B9A4201D1002070470220704742
:1022480010B5A2B01446C1F3090141EA8021ADF8E6
:10225800041001218DF80810BDF80410ADF809101C
:102268008DF80B20194603A801F0AAFD034B1B6942
:1022780013B1211D02A8984722B010BD900000207C
:1022880000B583B007E001A9074800F08EF901996D
:10229800064800F072F9054800F0ABF90128F2DDB4
:1022A80003B05DF804FB00BFC8040020C004002090
:1022B80030B583B005460C4607E001A9204600F07A
:1022C80086F90199284600F04CF9204600F03DF9BE
:1022D8000028F2D003B030BD10B508B1104AD06163
:1022E80001F08EF90F4800F02DF90F4800F02AF997
:1022F800002408E00D4B8C2101FB0431094800F053
:102308003CF90134E4B2042CF4D9054B1B680BB139
:1023180000209847024B9B6803B1984710BD00BF47
:1023280090000020C0040020C8040020B000002055
:102338000268054B1A60C268DA6002691A6182692C
:102348009A6182689A6070479000002070B584B0E6
:1023580004460D46B0F90230C3F30903028843EA84
:1023680082239EB20023039301A800F0EBF8FFF745
:1023780087FFA368227B61882088FFF761FF002D13
:1023880040F08480FEF702FB0546FEF7FFFA401B8B
:10239800B0F57A7F51D83E4800F0D7F80028F4D13C
:1023A80003A93B4800F001F9039B1A7A042A10D1CB
:1023B80003F10B0193F88820D01E5A7A0F2A32D0E5
:1023C80017D9102A39D03E2A03D1D97A62689142A6
:1023D80049D0304800F0B9F820B12D4800F0B5F8E0
:1023E80000284CD1039901A800F0C7F800230393F3
:1023F800C8E70E2AEDD19A89B2421ED1C21E606981
:10240800824228BF0246626103F10E01206901F091
:10241800D7FC03991F4800F0A4F801A91C48FFF74E
:1024280047FF002014E0B3F80D20B24205D16268DE
:102438000F2A0FD0DB7A002BCBD0039911B11548A6
:1024480000F08FF801A91248FFF732FF4FF0FF3074
:1024580004B070BD6269824228BF02466261206989
:1024680001F0AEFCD5E7421E61698A4228BF0A46E0
:10247800626103F10C01206901F0A2FCC9E703992C
:10248800044800F07AF8002303937BE70020DFE795
:10249800C8040020C004002000B583B000230193C5
:1024A80003E001990A4800F068F80A4800F04DF87E
:1024B80058B901A9074800F078F8074BDB69002BE9
:1024C800EFD0019808309847EBE703B05DF804FBBC
:1024D800C0040020C80400209000002010B582B07D
:1024E80000230193144800F030F808B102B010BD81
:1024F80001A9114800F059F8104BDB68002BF5D002
:102508008021019808309847C0B280B1019C84F8B6
:1025180088002046FFF785FE20B92146084800F0CC
:102528002CF8E3E72146044800F01BF8DEE70199A0
:10253800014800F016F8D9E7C004002090000020F8
:10254800C8040020006040607047EFF3108372B643
:102558000268824203D0002083F31088704701206C
:10256800FAE7EFF3108372B602680A604860016008
:102578000A68516083F310887047EFF3108372B6CE
:10258800086042684A6041604A68116083F31088B5
:102598007047EFF3108372B64268016811600268F1
:1025A8004168516083F31088704738B50D46EFF3E2
:1025B800108472B603680B600068FFF7EAFF2A68A8
:1025C800002313602A68536084F3108838BD38B537
:1025D8000D46EFF3108472B643680B604068FFF74E
:1025E800D8FF2A68002313602A68536084F3108890
:1025F80038BDEFF3108172B60368002201E00132A2
:102608001B688342FBD181F3108810467047000095
:1026180010B45C4B1B685C4981FB0321DA17C2EBE1
:10262800E1124FF4FA6101FB1232002A40F0948063
:102638005B42544A13605368534981FB0321DA17FC
:10264800C2EBE1124FF4FA6101FB1232002A40F0AA
:1026580085805B424B4A536093684B4981FB032159
:10266800DA17C2EBE1124FF4FA6101FB1232002AC9
:1026780077D15B42434A9360444B1968424A82FBD4
:102688000132CB17C3EBE2134FF4FA6202FB1313C8
:10269800002B68D149423D4B19605A683A4880FB83
:1026A8000230D317C3EBE0134FF4FA6000FB132397
:1026B800002B5AD15242354B5A609B68324C84FBEE
:1026C8000304D817C0EBE4104FF4FA6404FB10308D
:1026D80000284DD15B422D4883602B4C84FB0104BC
:1026E800C817C0EBE4104FF4FA6404FB101000287C
:1026F80040D127490968494225480160224880FBA2
:102708000210D117C1EBE0114FF4FA6000FB112160
:10271800002931D11E4A526852421D494A601A495D
:1027280081FB0321DA17C2EBE1124FF4FA6101FBD6
:10273800123222BB164B9B685B42154A9360154BBD
:102748001A6852421A605A6852425A609A6852424B
:102758009A605DF8044B70470A236AE76FF0090333
:1027680078E70A2386E7642195E76FF06302A2E71A
:102778006423B0E70321BFE76FF00202CDE703232C
:10278800DBE700BFA0040020D34D621094040020B2
:10279800880400207C04002008B50021084601F0C8
:1027A800C1F9002001F08CF9002001F035FA08BDCC
:1027B80070B505460C461646FEF7E8F82044304446
:1027C80001F012FB002404E001F032FB285501342B
:1027D800E4B2042CF8D9D0232B5570BD2DE9F84369
:1027E80005460C4601F024FB4FEAE0794FEA8903DD
:1027F800860043EA90776FF000420023301847EBD9
:102808000901FDF7F1FEFDF769FE0022124BFDF705
:10281800E5FCFDF799FE286001F00AFBC717B9002F
:10282800820041EA9073101843EB07010B0143EA59
:1028380010730201104619466FF000420023FDF79D
:10284800D3FEFDF74BFE0022044BFDF7C7FCFDF756
:102858007BFE2060BDE8F88300003B4000408F40CD
:102868002DE9F04B0446132840F2468101F0E0FAC6
:10287800C317A0FB048904FB039918EB080649EB6E
:1028880009076FF00042002318EB060049EB070127
:10289800FDF7AAFE6FF00908B8EB0006924D2B6809
:1028A80033442B6001F0C4FAC317A4FB00BC04FB3B
:1028B80003CC4FEA8C034FEA8B0643EA9B776FF011
:1028C800004200231BEB06004CEB0701FDF78CFED2
:1028D80010F10A066B6833446B6001F0A9FAC3175C
:1028E800A4FB00BC04FB03CC4FEACC034FEACB06A5
:1028F80043EA5B776FF000420023B6EB0B0067EB0F
:102908000C01FDF771FEB8EB0006AB68F018A86083
:1029180001F08EFAC317A4FB005604FB03666FF0A0
:1029280000420023681946EB0601FDF75DFE6FF0D3
:102938006306B6EB00086D4D2B6843442B6001F02D
:1029480077FAC317A4FB008904FB03994FEA8901AE
:102958006FF0004200234FEA880041EA9871FDF7C2
:1029680043FE10F164086B6843446B6001F060FA41
:10297800C317A4FB000104FB0311021841EB010378
:1029880010EB020841EB030918EB080049EB0901B9
:102998006FF000420023FDF727FE321AAE68164496
:1029A800AE6001F045FAC317A4FB008904FB039944
:1029B8004FEAC9034FEAC80643EA58776FF0004266
:1029C8000023B6EB080067EB0901FDF70DFE6FF079
:1029D8000208B8EB0006464D2B6833442B6001F023
:1029E80027FAC317A4FB00BC04FB03CC4FEACC03B3
:1029F8004FEACB0643EA5B776FF0004200231BEBFC
:102A080006004CEB0701FDF7EFFDC61C6B6833446D
:102A18006B6001F00DFAC317A4FB00BC04FB03CCE8
:102A28001BEB0B064CEB0C076FF0004200231BEB73
:102A380006004CEB0701FDF7D7FDB8EB0006AB68C5
:102A4800F018A86001F0F4F9C317A4FB008904FB8F
:102A580003994FEAC9034FEAC80643EA58776FF06B
:102A680000420023B6EB080067EB0901FDF7BCFD47
:102A780010F1C8061F4D2B6833442B6001F0D8F9BC
:102A8800C317A4FB008904FB039918EB080649EB5C
:102A980009076FF00042002318EB060049EB070115
:102AA800FDF7A2FD10F196066B689B1B6B6001F0A9
:102AB800BFF9C317A4FB008904FB03994FEA8903F4
:102AC8004FEA880643EA98776FF00042002318EB34
:102AD800060049EB0701FDF787FD10F10A06AB6810
:102AE8003344AB60BDE8F08BA004002094040020C0
:102AF800880400207C04002001F09AF9C317A0FB89
:102B0800048904FB039918EB080649EB09076FF0E1
:102B18000042002318EB060049EB0701FDF764FDAE
:102B280010F10A068C4D2B6833442B6001F080F9B4
:102B3800C317A4FB008904FB03994FEA89034FEAF2
:102B4800880643EA98776FF00042002318EB0600E6
:102B580049EB0701FDF748FD6FF00902121A6B688F
:102B680013446B6001F064F9C317A4FB008904FBEC
:102B780003994FEAC9034FEAC80643EA58776FF04A
:102B880000420023B6EB080067EB0901FDF72CFDB6
:102B980010F10A06AB683344AB6001F049F9C3177A
:102BA800A4FB005604FB03666FF00042002368197B
:102BB80046EB0601FDF718FD10F16406674D2B681A
:102BC80033442B6001F034F9C317A4FB006704FBFE
:102BD8000377B9006FF000420023B00041EA967114
:102BE800FDF702FD6FF06302121A6B6813446B6005
:102BF80001F01EF9C317A4FB000104FB031102181E
:102C080041EB0103861841EB0307B01947EB0701B5
:102C18006FF000420023FDF7E7FC10F16406AB6893
:102C28003344AB6001F004F9C317A4FB008904FB2B
:102C3800039918EB080649EB09076FF000420023D7
:102C480018EB060049EB0701FDF7CEFCC61C444D06
:102C58002B6833442B6001F0EBF8C317A4FB006723
:102C680004FB0377B9006FF000420023B00041EA8B
:102C78009671FDF7B9FC6FF00202121A6B681344E3
:102C88006B6001F0D5F8C317A4FB008904FB039916
:102C98004FEA89034FEA880643EA98776FF00042C3
:102CA800002318EB060049EB0701FDF79DFCC61C45
:102CB800AB683344AB6001F0BBF8C317A4FB0089D1
:102CC80004FB039918EB080649EB09076FF000426B
:102CD800002318EB060049EB0701FDF785FC10F10E
:102CE8006406204D2B689B1B2B6001F0A1F8C317CD
:102CF800A4FB008904FB03994FEA89034FEA88067D
:102D080043EA98776FF00042002318EB060049EB7E
:102D18000701FDF769FC10F164066B6833446B60CA
:102D280001F086F8C317A4FB008904FB03994FEA56
:102D3800C9034FEAC80643EA58776FF000420023F8
:102D4800B6EB080067EB0901FDF74EFC10F16406CD
:102D5800AB689B1BAB60C5E6A00400209404002070
:102D6800880400207C04002010B584B02C4B93E824
:102D780003000090ADF804102A4B1B783BB90020E3
:102D880000F0C6FE284B1B687BB904B010BD00F0EC
:102D9800C7FD0020234B187000F016FF234B187056
:102DA80069460720FFF706F8E9E7FDF7EFFD01F0B0
:102DB8001BF802A903A8FFF711FD9DED027ADFEDCC
:102DC8001C7A27EE277ADDED037AF2EE046A67EEC5
:102DD800A67AFDEEE77A17EE903A19B2FDEEC77AB9
:102DE80017EE900A00F04AFA124C2068FFF738FDF7
:102DF800114A1249124800F09FF9124800F004FAEB
:102E0800236801332360282B04D04FF47A70FDF730
:102E1800C3FDBAE700222260FFF7FAFBF5E700BF1F
:102E2800BC3F00080800002074040020D6040020DD
:102E38000000C8426C03002088040020940400208D
:102E4800A00400207C04002010B588B0FFF7A4FC83
:102E580000213148FFF740FA0DF116010DF1190074
:102E6800FFF738F9FFF75DF96420FDF795FD9DF848
:102E78001910302902D9294B01221A71284CBDF8A2
:102E880016202046FFF794FC224606210020FFF773
:102E9800CEF8FEF7BAFF214B1B79012B08D00DF1B4
:102EA8001A0307AA0DF11E010120FEF7BBFE0BE075
:102EB8000DF11A03019307AB00930DF11E030722CE
:102EC80000210120FEF77BFEBDF81C10BDF81E0096
:102ED800144B009305230022FFF753F800B1FEE7D7
:102EE80001200390104B02930021019110230093BD
:102EF80007230A46FEF71FFF00B1FEE700F01CF8A3
:102F080000B1FEE700F0A8F800B1FEE704210120B7
:102F1800FFF7BDF808B010BD393A00086C0300206F
:102F2800D0040020E43F000840E2010008B5FFF7A4
:102F38001BFFFFF7B1FA08BDF0B58BB01B238DF866
:102F48001830C5238DF81930D5238DF81A30A523EC
:102F58008DF81B3002268DF81C6000238DF81D307B
:102F6800B4228DF81E209A228DF81F20E1228DF8B8
:102F7800202011228DF8212001278DF822708DF84C
:102F880023308DF824308DF825308DF826308DF8D3
:102F980027302C4D06AC0FCC28606960AA60EB6026
:102FA800294B009310233A4629463046FEF74BFF3B
:102FB800002840D136238DF81E30AC238DF81F3001
:102FC80014238DF82630214D06AC0FCC286069609B
:102FD800AA60EB601C4B18881D4B059300230493D3
:102FE80010220392042202920193122300930823D1
:102FF8002A463146FEF765FF08BBE0238DF82630E8
:1030080006AC0FCC28606960AA60EB600E4B18888C
:10301800104B05930022049210230393042102917C
:103028000192009314232A463146FEF74AFF0346CD
:1030380010B1472300E0472318460BB0F0BD4723E3
:10304800FAE700BFF4040020EE040020DC040020AE
:10305800D8040020F004002070B58AB01B238DF836
:103068001830C5238DF81930D5238DF81A30A523CB
:103078008DF81B3002268DF81C6000238DF81D305A
:10308800B4228DF81E209A228DF81F20E1228DF897
:10309800202011228DF821208DF822608DF8233010
:1030A8008DF824308DF825308DF826308DF82730AE
:1030B8001D4D06AC0FCC28606960AA60EB601B4B05
:1030C80000930423012229463046FEF7BCFE30BB9C
:1030D80036238DF81E30AC238DF81F3001238DF870
:1030E80022308DF82530124D06AC0FCC286069606F
:1030F800AA60EB600D4B18880E4B059300220492D2
:1031080010230393042102910192009308232A4675
:103118003146FEF7D6FE034610B1472300E04723A9
:1031280018460AB070BD00BFF4040020EC0400206B
:10313800DC040020DA04002070B588B006460D468D
:103148001446FDF723FCC0F3C7008DF80C00FDF70B
:103158001DFCC0F3C7208DF80D0073685A428DF826
:103168000E20C2F307238DF80F3033688DF8103026
:10317800C3F307238DF81130B3685A428DF8122033
:10318800C2F307238DF813306B688DF81430C3F33E
:1031980007238DF815302B688DF81630C3F30723F5
:1031A8008DF81730AB688DF81830C3F307238DF806
:1031B800193063688DF81A30C3F307238DF81B3074
:1031C80023688DF81C30C3F307238DF81D30A368DE
:1031D8008DF81E30C3F307238DF81F30084B18886D
:1031E800084B198803AB009314230022FEF7C9FE8D
:1031F800034610B9184608B070BD4723FAE700BF68
:10320800EE040020F004002010B584B00446FDF759
:10321800BDFBC0F3C7008DF80800FDF7B7FBC0F38E
:10322800C7208DF8090023688DF80A30C3F30723F7
:103238008DF80B3063688DF80C30C3F307238DF8D5
:103248000D30A3688DF80E30C3F307238DF80F30C7
:10325800084B1888084B198802AB009308230022F2
:10326800FEF78FFE034610B9184604B010BD472379
:10327800FAE700BFEC040020DA04002030B585B07E
:1032880004460D46FDF782FBC0F3C7008DF8080021
:10329800FDF77CFBC0F3C7208DF809008DF80A40C4
:1032A800C4F307238DF80B30C4F307438DF80C30B3
:1032B800240E8DF80D408DF80E50C5F307258DF8B6
:1032C8000F50084B1888084B198802AB0093082345
:1032D8000022FEF756FE034610B9184605B030BD69
:1032E8004723FAE7EE040020D8040020F8B52DEDB6
:1032F800028B354B1B88013398420BD0334B1B880C
:10330800013398420CD0324B1888002858D1BDECB4
:10331800028BF8BD2F4A30493048FFF70DFFF2E71E
:1033280000F086FDC717BB00840043EA90756FF074
:1033380000420023201845EB0701FDF755F9FDF77A
:10334800CDF80022264BFCF749FFFDF7FDF808EE03
:10335800100A00F06DFD0646C717021847EB070371
:10336800101843EB07014B0143EAD06342011418DC
:1033780043EB01056FF000420023301947EB0501CC
:10338800FDF732F9FDF7AAF80022164BFCF726FFE5
:10339800FDF7DAF8DFED147A07EE100A67EE277A00
:1033A800B2EE047A28EE078ABDEEC88A18EE103A03
:1033B80019B2FDEEE77A17EE900AFFF75FFFA2E772
:1033C800FEF713FEA3E700BFF0040020D804002096
:1033D8007A0400208804002094040020A00400201F
:1033E80000003B4000408F400000C84270B586B0E6
:1033F80000240094154B1A6B42F001021A631B6BF0
:1034080003F001030093009B01260196104B0293E1
:103418000394104D01A92846FDF73AFB4FF4807339
:10342800019302960394049401A92846FDF730FB02
:103438000223019302960394049401A92846FDF7F8
:1034480027FB00F053FA06B070BD00BF00380240F9
:10345800000011100000024010B5084C0121204660
:10346800FDF7E8FB02212046FDF7E4FB4FF48071ED
:103478002046FDF7DFFB002010BD00BF0000024022
:1034880010B50A4C00224FF480712046FDF757FC16
:103498000520FDF781FA01224FF480712046FDF7DF
:1034A8004EFC0520FDF778FA002010BD0000024010
:1034B80070B584B006460D46FF238DF80F300B23F8
:1034C8008DF8083000228DF809208DF80A208DF833
:1034D8000B208DF80C2002211948FDF730FC05223D
:1034E800694602A800F0CAF99DF80030022B08D0FE
:1034F8000024012202211248FDF721FC204604B0D5
:1035080070BD9DF804209DF8033053EA022314D0BF
:10351800AB4200D81D4600240BE001220DF10E013C
:103528000DF10F0000F0AAF99DF80E303355013463
:10353800E4B2A3B2AB42F0D3DBE70024D9E700BF83
:1035480000000240F0B585B007460E460A238DF804
:10355800083000238DF809308DF80A308DF80B30CB
:103568008DF80C30FDF712FA054611E09DF8013090
:10357800B3421ED26FF00104012202211348FDF765
:10358800DEFBFDF703FA401B0F2819D8002C19DAC7
:10359800002202210D48FDF7D2FB0522694602A848
:1035A80000F06CF99DF80030022BDFD04FF0FF34AB
:1035B800E2E732460649384600F060F90024DBE7C6
:1035C8006FF00204204605B0F0BD00BF00000240C5
:1035D8007403002008B501210348FDF7A9FB012861
:1035E80014BF0020012008BD0000024008B502E019
:1035F8000020FEF773FFFFF7EDFF0028F8D108BDA4
:1036080010B588B0114B0193114B0293114B0593E0
:10361800114B0493114B0393114B079301A8FEF729
:1036280087FE104C4FF0C061204600F009FB0E4A9F
:103638000021204600F0FEFA002211460620FDF780
:10364800D1F90620FDF702FA08B010BDF5330008DD
:10365800613400084D350008B93400088934000881
:10366800B138000804050020F535000870B58AB0A7
:1036780000240594069407940894099401942B4B0C
:103688001A6B42F004021A631A6B02F004020192E8
:10369800019A02941A6B42F080021A631A6B02F0C4
:1036A80080020292029A03941A6B42F001021A6392
:1036B8001A6B02F001020392039A04941A6B42F007
:1036C80002021A631B6B03F002030493049B184D58
:1036D80022464FF491712846FDF731FB4FF4005311
:1036E8000593144B0693079405A91348FDF7D0F9E1
:1036F80001260596114B0693079405A92846FDF760
:10370800C7F94FF49173059306960794089405A991
:103718002846FDF7BDF9224621460620FDF762F945
:103728000620FDF793F90AB070BD00BF00380240CB
:1037380000000240000021100008024000001110A3
:1037480030B595B03022002108A800F044FB0024D1
:103758000394049405940694079401941A4B1A6CE4
:1037680042F080521A641B6C03F080530193019B52
:103778000294164B1A6842F440421A601B6803F41C
:1037880040430293029B0225089501230B931023C3
:103798000C930E950F9410934FF4A8731193042370
:1037A8001293139308A8FDF7D5FA0F2303930495F2
:1037B80005944FF4805306930794294603A8FDF710
:1037C80001FD15B030BD00BF003802400070004058
:1037D80030B591B0FDF7B4F8FFF7B2FFFFF746FF39
:1037E800FFF732FB6C460C4D0FCD0FC40FCD0FC445
:1037F8002B6823706846FDF777F84FF4FA7382B2A6
:1038080069460648FEF76BF94FF4FA70FDF7C4F8FD
:10381800FFF78CFBEEE700BFEC3F00086C050020CB
:10382800F0B587B000240094114B5A6C42F48052D2
:103838005A645B6C03F480530093009BC02301938C
:10384800022702970394032604960525059501A9E6
:103858000848FDF71DF9082301930297039404967D
:10386800059501A90448FDF713F907B0F0BD00BF9D
:1038780000380240000002400004024010B582B047
:1038880014464FF47A73009313460A4601460548D6
:10389800FDF70AFE10B9204602B010BD6FF0050012
:1038A800FAE700BF0C05002008B5FDF76FF808BD62
:1038B80008B50D4A02604FF48272426000228260AD
:1038C800C260026142614FF4007181611821C161D7
:1038D8000262426282620A22C262FDF7A5FD0346C5
:1038E80000B10123184608BD0030014010B50A4850
:1038F8000A4B0360FDF7F4FE08B1002010BD064C2A
:103908002046FFF78DFF2046FFF7D2FF0028F5D0AD
:103918006FF00700F2E700BF0C05002000300140FF
:10392800F0B593B0344B10AE93E8030086E803007B
:1039380002238DF824300A228DF8252000248DF8E2
:10394800264008278DF8277009228DF82820422262
:103958008DF829206C228DF82A2075228DF82B20CD
:1039680065228DF82C204E228DF82D2052228DF8BC
:103978002E2047228DF82F200D228DF83020FF228F
:103988008DF8312001258DF832508DF833308DF8BF
:103998003440F4238DF835308DF83740174B1A78BA
:1039A8008DF838205A788DF839209A788DF83A2091
:1039B800DA788DF83B201A798DF83C205B798DF800
:1039C8003D308DF8365021462046FEF7FAFB069426
:1039D8000594049403940296019700942B464FF49F
:1039E800F0624FF4C8612046FEF74BF909A91A2086
:1039F800FEF7E0F913B0F0BDC43F0008D004002082
:103A0800034B00221A600349012008701A7170479D
:103A18007404002008000020044B01221A60D98099
:103A2800052300E0013B002BFCD170477404002003
:103A380008B50378042B00D008BD43783E2B06D088
:103A4800FF2B0DD0052BF7D1FFF7DAFFF4E7C3788A
:103A5800012BF1D1B0F805100930FFF7DDFFEBE7D6
:103A6800B0F8032040F614439A42E5D1B0F80700B5
:103A7800FFF73CFCE0E7000000B587B000230093A7
:103A88000D4B1A6C42F400321A641B6C03F40033B9
:103A98000093009B0C2301930223029301230393B9
:103AA800032304930723059301A90448FCF7F0FFB7
:103AB80007B05DF804FB00BF003802400000024078
:103AC80070B586B0002400940F4B1A6B42F00102C7
:103AD8001A631B6B03F001030093009B01230293FD
:103AE800039302230493202606A941F8146D074D79
:103AF8002846FCF7CDFF224631462846FDF71FF938
:103B0800204606B070BD00BF0038024000000240E9
:103B180008B520210248FDF718F9002008BD00BFAC
:103B28000000024030B587B00446204B204A43F8D5
:103B38002020002000901F4B1A6B42F004021A63E9
:103B48001B6B03F004030093009B4FF40053019395
:103B580003900223049321B101290BD0002007B060
:103B680030BD029001A900F1804000F50230FCF759
:103B78008FFFF3E7104B029301A91048FCF788FF69
:103B88000A4D0F4955F8240000F05AF80D4A002153
:103B980055F8240000F04EF800220F212820FCF7E9
:103BA80021FF2820FCF752FFD8E700BFAC05002012
:103BB800640500200038024000001110000802408F
:103BC8000D000006E73B000808B54FF40051024815
:103BD800FDF7AEF808BD00BF00080240704708B501
:103BE8000020FFF7FBFF08BD08B50A4A02604FF442
:103BF800E132426000228260C26002610C214161B0
:103C08008261C261FDF73CFF034600B101231846FB
:103C180008BD00BF0044004010B5054C04EB8014FB
:103C28002046FFF729FF2046FFF7DEFF002010BDE2
:103C38006C05002011B942600020704701207047D0
:103C480010B10160002070470120704708B5036873
:103C580003F01F0201239340044A52691A4204D018
:103C6800024A5361436803B1984708BD003C0140CC
:103C780000B583B0002100910C4B5A6C42F480428D
:103C88005A645A6C02F480420092009A01911A6CAC
:103C980042F080521A641B6C03F080530193019B1D
:103CA8000720FCF78DFE03B05DF804FB00380240E6
:103CB8007047FEE7FEE7FEE7FEE77047704770478C
:103CC80008B5FCF757FE08BD08B50248FFF7BEFF68
:103CD80008BD00BF040500200F49D1F8883043F41F
:103CE8007003C1F888300D4B1A6842F001021A605F
:103CF800002098601A6822F0847222F480321A60D8
:103D0800074A5A601A6822F480221A60D8604FF075
:103D180000638B60704700BF00ED00E00038024090
:103D280010300024DFF834D0002103E00C4B5B583E
:103D3800435004310B480C4B42189A42F6D30B4AB5
:103D480002E0002342F8043B094B9A42F9D3FFF7FB
:103D5800C3FF00F011F8FFF73BFD70470000022099
:103D6800204000080000002074000020740000209B
:103D7800B4050020FEE7000070B50D4E0D4CA41BE5
:103D8800A4100025A54209D10B4E0C4C00F006F9F1
:103D9800A41BA4100025A54205D170BD56F82530F6
:103DA80098470135EEE756F8253098470135F2E790
:103DB8001840000818400008184000081C40000877
:103DC80010B5431E0A44914200D110BD11F8014BB1
:103DD80003F8014FF7E702440346934200D17047C6
:103DE80003F8011BF9E7000038B50D4B1C68A36BFD
:103DF80005467BB9182000F04FF80A4A0A4BA06321
:103E0800C0E90023094B83600B238381012200232F
:103E1800C0E90423A36B00221D615A6138BD00BFAD
:103E2800100000200E33CDAB34126DE6ECDE050039
:103E380038B5134B1C68A36B7BB9182000F02CF81D
:103E4800104A114BA063C0E90023104B83600B2379
:103E5800838101220023C0E90423A16B0C480A696D
:103E68004B690C4C504304FB0300A2FB042303449E
:103E7800541C43F10005C1E9044525F0004038BD54
:103E8800100000200E33CDAB34126DE6ECDE0500D9
:103E98002DF451582D7F954C024B0146186800F0BF
:103EA80003B800BF1000002070B5CD1C25F0030535
:103EB80008350C2D38BF0C25002D064601DBA9421C
:103EC80003D90C233360002070BD00F057F8214A55
:103ED8001468214691B9204C23681BB9304600F07C
:103EE8003DF820602946304600F038F8431C24D1BC
:103EF8000C233360304600F042F8E4E70B685B1BA4
:103F080018D40B2B0FD90B60CD50CC18304600F0CD
:103F180036F804F10B00231D20F00700C31AD3D094
:103F28005A42E250D0E78C424B6816BF6360136078
:103F38000C46EBE70C464968CCE7C41C24F00304A4
:103F4800A04205D0211A304600F008F80130CFD041
:103F58002560DBE7B0040020B404002038B5064C27
:103F6800002305460846236000F00AF8431C02D1E6
:103F7800236803B12B6038BDB00500207047704737
:103F8800044A05491368002B08BF0B461844106003
:103F980018467047B8040020B8050020F8B500BFDF
:103FA800F8BC08BC9E467047F8B500BFF8BC08BC12
:043FB8009E4670476A
:103FBC00050942534348000009426C75654E52474F
:103FCC0000000000000000000102030406070809BD
:103FDC000000000001020304425553434800000056
:103FEC005374617274696E67204E52472D424C4572
:103FFC002066726F6D204D617261626F75740A0D6F
:04400C0000000000B0
:0840100010C6FF7F0100000053
:04401800BD010008DE
:04401C0099010008FE
:104020000100000010000000010000000024F40066
:10403000140000200000000000000000000000004C
:104040000000000000000000000000000000000070
:104050000000000000000000000000000000000060
:104060000000000000000000000000000000000050
:104070000000000000000000000000000000000040
:104080000000000000000000000000000000000030
:04409000000000002C
:0400000508003D2D85
:00000001FF
